:020000040000FA
:060800008CEF5FF0120016
:020806000000F0
:060808005CEF3AF0120063
:02080E00C250D6
:08081000020B01E0010E1200D1
:0608180009EF55F012008B
:02081E000D00CB
:10082000F8BF0000000300000A000000F6BF00004F
:100830003B03000002000000DEBF0000B202000027
:1008400018000000D7BF0000F802000007000000F9
:10085000D4BF00003003000003000000CFBF000041
:100860001B03000005000000CBBF00002C030000AC
:1008700004000000B2BF0000810200001900000067
:10088000B0BF00003903000002000000ACBF000050
:100890002803000004000000A6BF000010030000B1
:1008A00006000000060800003703000002000000F8
:0C08B0009BBF0000FF02000001000000E0
:0408BC00D9CFE6FFAB
:1008C000E1CFD9FF120EE126F90EDBCFDEFFDBCF41
:1008D000DDFFFD0EDBCF4DF0FE0EDBCF4EF0020E46
:1008E0004DC0DBFF030E4EC0DBFFFB0EDBCF4DF038
:1008F000FC0EDBCF4EF0040E4DC0DBFF050E4EC0EC
:10090000DBFFD950020FE96EDACFEAFF7F0EEE5E11
:10091000000EED5AD9CFE9FFDACFEAFF7F0EEE5E87
:10092000000EED5AD950040FE96EDACFEAFF7F0EC0
:10093000EE5E000EED5ADECFE6FFDDCFE6FF8DEC7A
:1009400011F0E552E552F3CF04F0F4CF05F004C006
:100950004DF005C04EF000EC3EF04CC000F04DC034
:1009600001F04EC002F04FC003F0516A526AFE0E11
:10097000536E420E546E00C04CF001C04DF002C0E8
:100980004EF003C04FF0AAEC3EF0060E4CC0DBFF69
:10099000070E4DC0DBFF080E4EC0DBFF090E4FC037
:1009A000DBFF020EDBCFE6FF030EDBCFE6FF8DECB5
:1009B00011F0E552E552F3CF04F0F4CF05F004C096
:1009C0004DF005C04EF000EC3EF04CC000F04DC0C4
:1009D00001F04EC002F04FC003F0516A526AFE0EA1
:1009E000536E420E546E00C04CF001C04DF002C078
:1009F0004EF003C04FF0AAEC3EF00A0E4CC0DBFFF5
:100A00000B0E4DC0DBFF0C0E4EC0DBFF0D0E4FC0BA
:100A1000DBFF040EDBCFE6FF050EDBCFE6FF8DEC40
:100A200011F0E552E552F3CF04F0F4CF05F004C025
:100A30004DF005C04EF000EC3EF04CC000F04DC053
:100A400001F04EC002F04FC003F0516A526AFE0E30
:100A5000536E420E546E00C04CF001C04DF002C007
:100A60004EF003C04FF0AAEC3EF00E0E4CC0DBFF80
:100A70000F0E4DC0DBFF100E4EC0DBFF110E4FC03E
:100A8000DBFFF90EDBCFE6FFFA0EDBCFE6FF27EC4C
:100A900012F0E552E552FD0EDBCFE6FFFE0EDBCF96
:100AA000E6FFC0EC12F0E552E552FB0EDBCFE6FFAD
:100AB000FC0EDBCFE6FF79EC12F0E552E552060EB4
:100AC000DBCF08F0070EDBCF09F0080EDBCF0AF012
:100AD000090EDBCF0BF00A0EDBCF0CF00B0EDBCFD9
:100AE0000DF00C0EDBCF0EF00D0EDBCF0FF00CC0B7
:100AF00051F00DC052F00EC053F00FC054F008C0BA
:100B00004CF009C04DF00AC04EF00BC04FF014EC91
:100B10003EF04CC004F04DC005F04EC006F04FC092
:100B200007F00E0EDBCF10F00F0EDBCF11F0100E22
:100B3000DBCF12F0110EDBCF13F010C051F011C05B
:100B400052F012C053F013C054F004C04CF005C072
:100B50004DF006C04EF007C04FF014EC3EF04CC014
:100B600000F04DC001F04EC002F04FC003F0CD0EBA
:100B7000516ECC0E526E536E3D0E546E00C04CF052
:100B800001C04DF002C04EF003C04FF031EC40F018
:100B9000010A02E07CEF0BF0020EDBCFE6FF030E52
:100BA000DBCFE6FF8DEC11F0E552E552F3CF14F008
:100BB000F4CF15F0153404E214500A08000E155451
:100BC0002AE3040EDBCFE6FF050EDBCFE6FF8DEC5C
:100BD00011F0E552E552F3CF16F0F4CF17F01734C9
:100BE00004E216500A08000E175415E3DECFE6FFA4
:100BF000DDCFE6FF8DEC11F0E552E552F3CF18F0B2
:100C0000F4CF19F0193404E218500A08000E1954F0
:100C100002E37CEF0BF0D9500E0FE96EDACFEAFF5A
:100C2000EECFE6FFEECFE6FFEECFE6FFEFCFE6FF3B
:100C3000A2C2E6FFA3C2E6FF3EEC11F0F56E060E7F
:100C4000E15EF5504BC010F04CC011F04DC012F0F9
:100C50004EC013F010C0E6FF11C0E6FF12C0E6FF61
:100C600013C0E6FFD9500A0FE96EDACFEAFFEECFE4
:100C7000E6FFEECFE6FFEECFE6FFEFCFE6FF9AC24C
:100C8000E6FF9BC2E6FF3EEC11F0F56E060EE15E5C
:100C9000F550E552E7CF13F0E552E7CF12F0E552F9
:100CA000E7CF11F0E552E7CF10F04BC014F04CC085
:100CB00015F04DC016F04EC017F014C051F015C01D
:100CC00052F016C053F017C054F010C04CF011C0D1
:100CD0004DF012C04EF013C04FF014EC3EF04CC07B
:100CE0000CF04DC00DF04EC00EF04FC00FF00CC018
:100CF000E6FF0DC0E6FF0EC0E6FF0FC0E6FFD950CD
:100D0000060FE96EDACFEAFFEECFE6FFEECFE6FFA1
:100D1000EECFE6FFEFCFE6FFAAC2E6FFABC2E6FFEB
:100D20003EEC11F0F56E060EE15EF550E552E7CFB0
:100D30000FF0E552E7CF0EF0E552E7CF0DF0E552A8
:100D4000E7CF0CF04BC018F04CC019F04DC01AF0B2
:100D50004EC01BF018C051F019C052F01AC053F029
:100D60001BC054F00CC04CF00DC04DF00EC04EF046
:100D70000FC04FF014EC3EF04CC008F04DC009F02D
:100D80004EC00AF04FC00BF0516A800E526EBE0E7C
:100D9000536E430E546E08C04CF009C04DF00AC0AB
:100DA0004EF00BC04FF013EC3EF002EC40F000ECC4
:100DB0003EF04CC004F04DC005F04EC006F04FC0F0
:100DC00007F0060EDBCF24F0070EDBCF25F0080E70
:100DD000DBCF26F0090EDBCF27F00A0EDBCF28F0A1
:100DE0000B0EDBCF29F00C0EDBCF2AF00D0EDBCF84
:100DF0002BF028C051F029C052F02AC053F02BC06C
:100E000054F024C04CF025C04DF026C04EF027C051
:100E10004FF014EC3EF04CC020F04DC021F04EC01D
:100E200022F04FC023F00E0EDBCF2CF00F0EDBCFE5
:100E30002DF0100EDBCF2EF0110EDBCF2FF02CC0DB
:100E400051F02DC052F02EC053F02FC054F020C0EE
:100E50004CF021C04DF022C04EF023C04FF014ECF6
:100E60003EF04CC01CF04DC01DF04EC01EF04FC0F7
:100E70001FF01CC051F01DC052F01EC053F01FC027
:100E800054F004C04CF005C04DF006C04EF007C051
:100E90004FF0AAEC3EF04CC000F04DC001F04EC047
:100EA00002F04FC003F0516A526AFE0E536E420EBA
:100EB000546E00C04CF001C04DF002C04EF003C0B3
:100EC0004FF014EC3EF0DBEC3FF04EC004F2D95092
:100ED0000E0FE96EDACFEAFFEECFE6FFEECFE6FFC8
:100EE000EECFE6FFEFCFE6FFA4C2E6FFA5C2E6FF26
:100EF0003EEC11F0F56E060EE15EF5504BC010F0C1
:100F00004CC011F04DC012F04EC013F010C0E6FFFF
:100F100011C0E6FF12C0E6FF13C0E6FFD9500A0F6A
:100F2000E96EDACFEAFFEECFE6FFEECFE6FFEECFD7
:100F3000E6FFEFCFE6FF9CC2E6FF9DC2E6FF3EEC78
:100F400011F0F56E060EE15EF550E552E7CF13F0B5
:100F5000E552E7CF12F0E552E7CF11F0E552E7CFC7
:100F600010F04BC014F04CC015F04DC016F04EC040
:100F700017F014C051F015C052F016C053F017C04E
:100F800054F010C04CF011C04DF012C04EF013C020
:100F90004FF014EC3EF04CC00CF04DC00DF04EC0C4
:100FA0000EF04FC00FF00CC0E6FF0DC0E6FF0EC004
:100FB000E6FF0FC0E6FFD950060FE96EDACFEAFF71
:100FC000EECFE6FFEECFE6FFEECFE6FFEFCFE6FF98
:100FD000ACC2E6FFADC2E6FF3EEC11F0F56E060EC8
:100FE000E15EF550E552E7CF0FF0E552E7CF0EF0A6
:100FF000E552E7CF0DF0E552E7CF0CF04BC018F00B
:101000004CC019F04DC01AF04EC01BF018C051F082
:1010100019C052F01AC053F01BC054F00CC04CF071
:101020000DC04DF00EC04EF00FC04FF014EC3EF06E
:101030004CC008F04DC009F04EC00AF04FC00BF094
:10104000516A800E526EBE0E536E430E546E08C02F
:101050004CF009C04DF00AC04EF00BC04FF013EC3D
:101060003EF002EC40F000EC3EF04CC004F04DC00D
:1010700005F04EC006F04FC007F0060EDBCF24F09F
:10108000070EDBCF25F0080EDBCF26F0090EDBCFF5
:1010900027F00A0EDBCF28F00B0EDBCF29F00C0E69
:1010A000DBCF2AF00D0EDBCF2BF028C051F029C08A
:1010B00052F02AC053F02BC054F024C04CF025C08D
:1010C0004DF026C04EF027C04FF014EC3EF04CC05F
:1010D00020F04DC021F04EC022F04FC023F00E0E84
:1010E000DBCF2CF00F0EDBCF2DF0100EDBCF2EF070
:1010F000110EDBCF2FF02CC051F02DC052F02EC0BE
:1011000053F02FC054F020C04CF021C04DF022C04D
:101110004EF023C04FF014EC3EF04CC01CF04DC01C
:101120001DF04EC01EF04FC01FF01CC051F01DC07E
:1011300052F01EC053F01FC054F004C04CF005C064
:101140004DF006C04EF007C04FF0AAEC3EF04CC088
:1011500000F04DC001F04EC002F04FC003F0516AE4
:10116000526AFE0E536E420E546E00C04CF001C027
:101170004DF002C04EF003C04FF014EC3EF0DBEC3B
:101180003FF04EC005F2D9500E0FE96EDACFEAFFFC
:10119000EECFE6FFEECFE6FFEECFE6FFEFCFE6FFC6
:1011A000A6C2E6FFA7C2E6FF3EEC11F0F56E060E02
:1011B000E15EF5504BC010F04CC011F04DC012F084
:1011C0004EC013F010C0E6FF11C0E6FF12C0E6FFEC
:1011D00013C0E6FFD9500A0FE96EDACFEAFFEECF6F
:1011E000E6FFEECFE6FFEECFE6FFEFCFE6FF9EC2D3
:1011F000E6FF9FC2E6FF3EEC11F0F56E060EE15EE3
:10120000F550E552E7CF13F0E552E7CF12F0E55283
:10121000E7CF11F0E552E7CF10F04BC014F04CC00F
:1012200015F04DC016F04EC017F014C051F015C0A7
:1012300052F016C053F017C054F010C04CF011C05B
:101240004DF012C04EF013C04FF014EC3EF04CC005
:101250000CF04DC00DF04EC00EF04FC00FF00CC0A2
:10126000E6FF0DC0E6FF0EC0E6FF0FC0E6FFD95057
:10127000060FE96EDACFEAFFEECFE6FFEECFE6FF2C
:10128000EECFE6FFEFCFE6FFAEC2E6FFAFC2E6FF6E
:101290003EEC11F0F56E060EE15EF550E552E7CF3B
:1012A0000FF0E552E7CF0EF0E552E7CF0DF0E55233
:1012B000E7CF0CF04BC018F04CC019F04DC01AF03D
:1012C0004EC01BF018C051F019C052F01AC053F0B4
:1012D0001BC054F00CC04CF00DC04DF00EC04EF0D1
:1012E0000FC04FF014EC3EF04CC008F04DC009F0B8
:1012F0004EC00AF04FC00BF0516A800E526EBE0E07
:10130000536E430E546E08C04CF009C04DF00AC035
:101310004EF00BC04FF013EC3EF002EC40F000EC4E
:101320003EF04CC004F04DC005F04EC006F04FC07A
:1013300007F0060EDBCF24F0070EDBCF25F0080EFA
:10134000DBCF26F0090EDBCF27F00A0EDBCF28F02B
:101350000B0EDBCF29F00C0EDBCF2AF00D0EDBCF0E
:101360002BF028C051F029C052F02AC053F02BC0F6
:1013700054F024C04CF025C04DF026C04EF027C0DC
:101380004FF014EC3EF04CC020F04DC021F04EC0A8
:1013900022F04FC023F00E0EDBCF2CF00F0EDBCF70
:1013A0002DF0100EDBCF2EF0110EDBCF2FF02CC066
:1013B00051F02DC052F02EC053F02FC054F020C079
:1013C0004CF021C04DF022C04EF023C04FF014EC81
:1013D0003EF04CC01CF04DC01DF04EC01EF04FC082
:1013E0001FF01CC051F01DC052F01EC053F01FC0B2
:1013F00054F004C04CF005C04DF006C04EF007C0DC
:101400004FF0AAEC3EF04CC000F04DC001F04EC0D1
:1014100002F04FC003F0516A526AFE0E536E420E44
:10142000546E00C04CF001C04DF002C04EF003C03D
:101430004FF014EC3EF0DBEC3FF04EC006F2D9501A
:101440000E0FE96EDACFEAFFEECFE6FFEECFE6FF52
:10145000EECFE6FFEFCFE6FFA8C2E6FFA9C2E6FFA8
:101460003EEC11F0F56E060EE15EF5504BC010F04B
:101470004CC011F04DC012F04EC013F010C0E6FF8A
:1014800011C0E6FF12C0E6FF13C0E6FFD9500A0FF5
:10149000E96EDACFEAFFEECFE6FFEECFE6FFEECF62
:1014A000E6FFEFCFE6FFA0C2E6FFA1C2E6FF3EECFB
:1014B00011F0F56E060EE15EF550E552E7CF13F040
:1014C000E552E7CF12F0E552E7CF11F0E552E7CF52
:1014D00010F04BC014F04CC015F04DC016F04EC0CB
:1014E00017F014C051F015C052F016C053F017C0D9
:1014F00054F010C04CF011C04DF012C04EF013C0AB
:101500004FF014EC3EF04CC00CF04DC00DF04EC04E
:101510000EF04FC00FF00CC0E6FF0DC0E6FF0EC08E
:10152000E6FF0FC0E6FFD950060FE96EDACFEAFFFB
:10153000EECFE6FFEECFE6FFEECFE6FFEFCFE6FF22
:10154000B0C2E6FFB1C2E6FF3EEC11F0F56E060E4A
:10155000E15EF550E552E7CF0FF0E552E7CF0EF030
:10156000E552E7CF0DF0E552E7CF0CF04BC018F095
:101570004CC019F04DC01AF04EC01BF018C051F00D
:1015800019C052F01AC053F01BC054F00CC04CF0FC
:101590000DC04DF00EC04EF00FC04FF014EC3EF0F9
:1015A0004CC008F04DC009F04EC00AF04FC00BF01F
:1015B000516A800E526EBE0E536E430E546E08C0BA
:1015C0004CF009C04DF00AC04EF00BC04FF013ECC8
:1015D0003EF002EC40F000EC3EF04CC004F04DC098
:1015E00005F04EC006F04FC007F0060EDBCF24F02A
:1015F000070EDBCF25F0080EDBCF26F0090EDBCF80
:1016000027F00A0EDBCF28F00B0EDBCF29F00C0EF3
:10161000DBCF2AF00D0EDBCF2BF028C051F029C014
:1016200052F02AC053F02BC054F024C04CF025C017
:101630004DF026C04EF027C04FF014EC3EF04CC0E9
:1016400020F04DC021F04EC022F04FC023F00E0E0E
:10165000DBCF2CF00F0EDBCF2DF0100EDBCF2EF0FA
:10166000110EDBCF2FF02CC051F02DC052F02EC048
:1016700053F02FC054F020C04CF021C04DF022C0D8
:101680004EF023C04FF014EC3EF04CC01CF04DC0A7
:101690001DF04EC01EF04FC01FF01CC051F01DC009
:1016A00052F01EC053F01FC054F004C04CF005C0EF
:1016B0004DF006C04EF007C04FF0AAEC3EF04CC013
:1016C00000F04DC001F04EC002F04FC003F0516A6F
:1016D000526AFE0E536E420E546E00C04CF001C0B2
:1016E0004DF002C04EF003C04FF014EC3EF0DBECC6
:1016F0003FF04EC007F206D002017F0E046F056F67
:10170000066F076FF90EDBCFE6FFFA0EDBCFE6FFC1
:10171000FB0EDBCFE6FFFC0EDBCFE6FFFD0EDBCFE3
:10172000E6FFFE0EDBCFE6FF0AD8F56E060EE15EA1
:10173000F550D9CFE1FFE552E7CFD9FF1200D9CF5D
:10174000E6FFE1CFD9FFE652FD0EDBCF02F0FE0E41
:10175000DBCF03F07F0E025E000E035A02C0E6FFED
:1017600003C0E6FF8DEC11F0E552E552F3CF00F037
:10177000F4CF01F0013404E200500A08000E0154D5
:101780001DE3F90EDBCF06F0FA0EDBCF07F07F0E7C
:10179000065E000E075A06C0E6FF07C0E6FF8DECA6
:1017A00011F0E552E552F3CF04F0F4CF05F0053423
:1017B00004E204500A08000E055402E2000E01D0B3
:1017C000010EDF6EFB0EDBCF00F0FC0EDBCF01F075
:1017D000013404E20050AF08000E015467E2DF500C
:1017E00065E0CD0EE66ECC0EE66E8C0EE66E3F0E1C
:1017F000E66E02010551E66EE66A3EEC11F0F56E0A
:10180000060EE15EF5504BC002F04CC003F04DC037
:1018100004F04EC005F002C04CF003C04DF004C00F
:101820004EF005C04FF002EC40F04DC000F04EC04D
:1018300001F000C0E6FF01C0E6FFD8EC10F0E55271
:10184000E552F3CF05F2CD0EE66ECC0EE66E8C0EB1
:10185000E66E3F0EE66E02010751E66EE66A3EEC6A
:1018600011F0F56E060EE15EF5504BC002F04CC073
:1018700003F04DC004F04EC005F002C04CF003C0B0
:101880004DF004C04EF005C04FF002EC40F04DC0EA
:1018900000F04EC001F000C0E6FF01C0E6FFD8EC4A
:1018A00010F0E552E552F3CF07F257D1FB0EDBCF34
:1018B00000F0FC0EDBCF01F0D890015004E6570E8B
:1018C000005C000E015867E2DF5065E0CD0EE66E69
:1018D000CC0EE66E8C0EE66E3F0EE66E02010451F3
:1018E000E66EE66A3EEC11F0F56E060EE15EF5502E
:1018F0004BC002F04CC003F04DC004F04EC005F0E8
:1019000002C04CF003C04DF004C04EF005C04FF0D3
:1019100002EC40F04DC000F04EC001F000C0E6FF08
:1019200001C0E6FFD8EC10F0E552E552F3CF04F227
:10193000CD0EE66ECC0EE66E8C0EE66E3F0EE66EBB
:1019400002010651E66EE66A3EEC11F0F56E060EF7
:10195000E15EF5504BC002F04CC003F04DC004F006
:101960004EC005F002C04CF003C04DF004C04EF074
:1019700005C04FF002EC40F04DC000F04EC001F049
:1019800000C0E6FF01C0E6FFD8EC10F0E552E552DA
:10199000F3CF06F2E2D0FB0EDBCF00F0FC0EDBCF84
:1019A00001F0013404E200508908000E015465E2A0
:1019B000DF5063E09A0EE66E990EE66EB90EE66EA3
:1019C0003F0EE66E02010551E66EE66A3EEC11F04E
:1019D000F56E060EE15EF5504BC002F04CC003F010
:1019E0004DC004F04EC005F002C04CF003C04DF0F5
:1019F00004C04EF005C04FF002EC40F04DC000F0C6
:101A00004EC001F000C0E6FF01C0E6FFD1DBE552A9
:101A1000E552F3CF05F29A0EE66E990EE66EB90E18
:101A2000E66E3F0EE66E02010751E66EE66A3EEC98
:101A300011F0F56E060EE15EF5504BC002F04CC0A1
:101A400003F04DC004F04EC005F002C04CF003C0DE
:101A50004DF004C04EF005C04FF002EC40F04DC018
:101A600000F04EC001F000C0E6FF01C0E6FFA0DBC1
:101A7000E552E552F3CF07F270D0FB0EDBCF00F05A
:101A8000FC0EDBCF01F0D890015004E6750E005C2F
:101A9000000E015862E2DF5060E0CD0EE66ECC0E23
:101AA000E66EAC0EE66E3F0EE66E02010451E66E87
:101AB000E66AE4DBF56E060EE15EF5504BC002F01F
:101AC0004CC003F04DC004F04EC005F002C04CF015
:101AD00003C04DF004C04EF005C04FF002EC40F0E2
:101AE0004DC000F04EC001F000C0E6FF01C0E6FFAF
:101AF0005FDBE552E552F3CF04F2CD0EE66ECC0E7D
:101B0000E66EAC0EE66E3F0EE66E02010651E66E24
:101B1000E66AB4DBF56E060EE15EF5504BC002F0EE
:101B20004CC003F04DC004F04EC005F002C04CF0B4
:101B300003C04DF004C04EF005C04FF002EC40F081
:101B40004DC000F04EC001F000C0E6FF01C0E6FF4E
:101B50002FDBE552E552F3CF06F2FD0EDBCF02F0AC
:101B6000FE0EDBCF03F07F0E025E000E035A02C0B2
:101B7000E6FF03C0E6FFD1DBE552E552F3CF00F00C
:101B8000F4CF01F0013404E200500A08000E0154C1
:101B90001CE3FB0EDBCF06F0FC0EDBCF07F07F0E65
:101BA000065E000E075A06C0E6FF07C0E6FFB5DB7B
:101BB000E552E552F3CF04F0F4CF05F0053404E22A
:101BC00004500A08000E055402E2000E01D0010E76
:101BD000DF6EF90EDBCF00F0FA0EDBCF01F0D8900C
:101BE000015004E6AA0E005C000E015870E2F90EE6
:101BF000DBCF02F0FA0EDBCF03F0033404E2025035
:101C00008908000E035463E2DF5061E0CD0EE66EFA
:101C1000CC0EE66EAC0EE66E3F0EE66E020105518E
:101C2000E66EE66A2BDBF56E060EE15EF5504BC004
:101C300002F04CC003F04DC004F04EC005F002C0ED
:101C40004CF003C04DF004C04EF005C04FF002EC64
:101C500040F04DC000F04EC001F000C0E6FF01C0F2
:101C6000E6FFA6DAE552E552F3CF05F2CD0EE66EB9
:101C7000CC0EE66EAC0EE66E3F0EE66E020107512C
:101C8000E66EE66AFBDAF56E060EE15EF5504BC0D5
:101C900002F04CC003F04DC004F04EC005F002C08D
:101CA0004CF003C04DF004C04EF005C04FF002EC04
:101CB00040F04DC000F04EC001F000C0E6FF01C092
:101CC000E6FF76DAE552E552F3CF07F272D0020171
:101CD0002C5154086EE2F90EDBCF00F0FA0EDBCF88
:101CE00001F0D890015004E6750E005C000E01581A
:101CF00060E2DF505EE0660EE66EE66EA60EE66E11
:101D00003F0EE66E02010451E66EE66AB7DAF56E42
:101D1000060EE15EF5504BC002F04CC003F04DC022
:101D200004F04EC005F002C04CF003C04DF004C0FA
:101D30004EF005C04FF002EC40F04DC000F04EC038
:101D400001F000C0E6FF01C0E6FF32DAE552E552DD
:101D5000F3CF04F2660EE66EE66EA60EE66E3F0E5A
:101D6000E66E02010651E66EE66A88DAF56E060E48
:101D7000E15EF5504BC002F04CC003F04DC004F0E2
:101D80004EC005F002C04CF003C04DF004C04EF050
:101D900005C04FF002EC40F04DC000F04EC001F025
:101DA00000C0E6FF01C0E6FF03DAE552E552F3CFDB
:101DB00006F2F90EDBCF02F0FA0EDBCF03F07F0E56
:101DC000025E000E035A02C0E6FF03C0E6FFA5DA7A
:101DD000E552E552F3CF00F0F4CF01F0013404E214
:101DE00000500A08000E01541CE3FB0EDBCF06F086
:101DF000FC0EDBCF07F07F0E065E000E075A06C012
:101E0000E6FF07C0E6FF89DAE552E552F3CF04F0BA
:101E1000F4CF05F0053404E204500A08000E05541E
:101E200002E2000E01D0010EDF6EFD0EDBCF00F0EE
:101E3000FE0EDBCF01F0D890015004E6750E005C79
:101E4000000E015801E3D0D0DF5001E1CDD0FD0EEE
:101E5000DBCF02F0FE0EDBCF03F0033404E20250CE
:101E60003608000E035401E3BFD09A0EE66E990EB9
:101E7000E66EE66E3F0EE66E02010751E66EE66A1A
:101E8000FDD9F56E060EE15EF5504BC002F04CC078
:101E900003F04DC004F04EC005F002C04CF003C08A
:101EA0004DF004C04EF005C04FF002EC40F04DC0C4
:101EB00000F04EC001F000C0E6FF01C0E6FF78D997
:101EC000E552E552F3CF07F29A0EE66E990EE66EF2
:101ED000E66E3F0EE66E02010651E66EE66ACED968
:101EE000F56E060EE15EF5504BC002F04CC003F0FB
:101EF0004DC004F04EC005F002C04CF003C04DF0E0
:101F000004C04EF005C04FF002EC40F04DC000F0B0
:101F10004EC001F000C0E6FF01C0E6FF49D9E5521E
:101F2000E552F3CF06F2CD0EE66ECC0EE66E4C0E09
:101F3000E66E3F0EE66E02010551E66EE66A9ED938
:101F4000F56E060EE15EF5504BC002F04CC003F09A
:101F50004DC004F04EC005F002C04CF003C04DF07F
:101F600004C04EF005C04FF002EC40F04DC000F050
:101F70004EC001F000C0E6FF01C0E6FF19D9E552EE
:101F8000E552F3CF05F2CD0EE66ECC0EE66E4C0EAA
:101F9000E66E3F0EE66E02010451E66EE66A6ED909
:101FA000F56E060EE15EF5504BC002F04CC003F03A
:101FB0004DC004F04EC005F002C04CF003C04DF01F
:101FC00004C04EF005C04FF002EC40F04DC000F0F0
:101FD0004EC001F000C0E6FF01C0E6FFE9D8E552BF
:101FE000E552F3CF04F2DFD0FD0EDBCF00F0FE0EA2
:101FF000DBCF01F0013404E200508908000E0154E7
:1020000001E3D1D0FD0EDBCF02F0FE0EDBCF03F0FB
:10201000D890035004E6C80E025C000E035801E39A
:10202000C2D0DF5001E1BFD09A0EE66E990EE66E87
:10203000E66E3F0EE66E02010551E66EE66A1ED9B7
:10204000F56E060EE15EF5504BC002F04CC003F099
:102050004DC004F04EC005F002C04CF003C04DF07E
:1020600004C04EF005C04FF002EC40F04DC000F04F
:102070004EC001F000C0E6FF01C0E6FF99D8E5526E
:10208000E552F3CF05F2CD0EE66ECC0EE66EAC0E49
:10209000E66E3F0EE66E02010451E66EE66AEED889
:1020A000F56E060EE15EF5504BC002F04CC003F039
:1020B0004DC004F04EC005F002C04CF003C04DF01E
:1020C00004C04EF005C04FF002EC40F04DC000F0EF
:1020D0004EC001F000C0E6FF01C0E6FF69D8E5523E
:1020E000E552F3CF04F2CD0EE66ECC0EE66E8C0E0A
:1020F000E66E3F0EE66E02010751E66EE66ABED856
:10210000F56E060EE15EF5504BC002F04CC003F0D8
:102110004DC004F04EC005F002C04CF003C04DF0BD
:1021200004C04EF005C04FF002EC40F04DC000F08E
:102130004EC001F000C0E6FF01C0E6FF39D8E5520D
:10214000E552F3CF07F2CD0EE66ECC0EE66E8C0EA6
:10215000E66E3F0EE66E02010651E66EE66A8ED826
:10216000F56E060EE15EF5504BC002F04CC003F078
:102170004DC004F04EC005F002C04CF003C04DF05D
:1021800004C04EF005C04FF002EC40F04DC000F02E
:102190004EC001F000C0E6FF01C0E6FF09D8E552DD
:1021A000E552F3CF06F2E552E552E7CFD9FF120030
:1021B000D9CFE6FFE1CFD9FFFD0EDBCF00F0FE0E59
:1021C000DBCF01F00001800E011403E0F36AF46A32
:1021D0001BD0FD0EDBCF00F0FE0EDBCF01F0013493
:1021E00004E20050FF08000E015403E2F368F46AB1
:1021F0000BD0FD0EDBCF00F0FE0EDBCF01F000C0F8
:10220000F3FF01C0F4FF00D0E552E7CFD9FF120081
:10221000D9CFE6FFE1CFD9FFFD0EDBCF00F0FE0EF8
:10222000DBCF01F0FB0EDBCF02F0FC0EDBCF03F0C7
:1022300001500318E8AE02D0033404D00250005C11
:10224000035001580CE2FD0EDBCF00F0FE0EDBCF99
:1022500001F000C0F3FF01C0F4FF0CD00BD0FB0E67
:10226000DBCF00F0FC0EDBCF01F000C0F3FF01C0BC
:10227000F4FF00D0E552E7CFD9FF1200D9CFE6FF37
:10228000E1CFD9FFFD0EDBCF08F0FE0EDBCF09F06A
:102290007F0E085E000E095A08C04DF009C04EF0CE
:1022A00000EC3EF0F90EDBCF51F0FA0EDBCF52F02E
:1022B000FB0EDBCF53F0FC0EDBCF54F0FDEC3EF019
:1022C0004CC004F04DC005F04EC006F04FC007F002
:1022D000516A526AFE0E536E420E546E04C04CF0A8
:1022E00005C04DF006C04EF007C04FF014EC3EF0B4
:1022F0004CC000F04DC001F04EC002F04FC003F0E2
:1023000000C04BF001C04CF002C04DF003C04EF0D5
:1023100000D0E552E7CFD9FF1200D9CFE6FFE1CFD9
:10232000D9FFFD0EDBCF00F0FE0EDBCF01F0000188
:10233000800E011414E04D684E68FD0EDBCF52F0A4
:10234000FE0EDBCF53F090EC3FF04BC000F04CC0E2
:1023500001F000C0F3FF01C0F4FF0CD00BD0FD0E64
:10236000DBCF00F0FE0EDBCF01F000C0F3FF01C0B9
:10237000F4FF00D0E552E7CFD9FF1200D9CFE6FF36
:10238000E1CFD9FFFB0EDBCFE6FFFC0EDBCFE6FF94
:10239000FD0EDBCFE6FFFE0EDBCFE6FF22D8E552D7
:1023A000E552E552E552F70EDBCFE6FFF80EDBCF44
:1023B000E6FFF90EDBCFE6FFFA0EDBCFE6FF11D822
:1023C000E552E552E552E552F3CF00F0F4CF01F0CB
:1023D00000C0F3FF01C0F4FF00D0E552E7CFD9FF02
:1023E0001200D9CFE6FFE1CFD9FFFD0EDBCF00F021
:1023F000FE0EDBCF01F0FB0EDBCF02F0FC0EDBCFDD
:1024000003F003500118E8AE02D0013404D00050AC
:10241000025C015003580CE2FD0EDBCF00F0FE0E13
:10242000DBCF01F000C0F3FF01C0F4FF0CD00BD0F4
:10243000FB0EDBCF00F0FC0EDBCF01F000C0F3FFA2
:1024400001C0F4FF00D0E552E7CFD9FF1200D9CF89
:10245000E6FFE1CFD9FFFD0EDBCF02F0FE0EDBCFB2
:1024600003F07F0E025E000E035A02C0E6FF03C0B7
:10247000E6FF53DFE552E552F3CF00F0F4CF01F071
:10248000013404E200500A08000E015424E2FD0E5B
:10249000DBCFAAF2FE0EDBCFABF20201FF0ED8803B
:1024A000AA57000EAB57FD0EDBCFACF2FE0EDBCF12
:1024B000ADF2FD0EDBCFAEF2FE0EDBCFAFF2FF0EC4
:1024C000D880AE57000EAF57FD0EDBCFB0F2FE0E38
:1024D000DBCFB1F20AD07F0E0201AA6FAB6BAC6FFB
:1024E000AD6BAE6FAF6BB06FB16BE552E7CFD9FF9D
:1024F0001200D9CFE6FFE1CFD9FFFD0EDBCF02F00E
:10250000FE0EDBCF03F07F0E025E000E035A02C008
:10251000E6FF03C0E6FF01DFE552E552F3CF00F02E
:10252000F4CF01F0013404E200500A08000E015417
:1025300019E2FD0EDBCFA2F2FE0EDBCFA3F2FD0E01
:10254000DBCFA4F2FE0EDBCFA5F2FD0EDBCFA6F2B1
:10255000FE0EDBCFA7F2FD0EDBCFA8F2FE0EDBCF27
:10256000A9F20AD07F0E0201A26FA36BA46FA56B24
:10257000A66FA76BA86FA96BE552E7CFD9FF120032
:10258000D9CFE6FFE1CFD9FFFD0EDBCF02F0FE0E83
:10259000DBCF03F07F0E025E000E035A02C0E6FF9F
:1025A00003C0E6FFBADEE552E552F3CF00F0F4CF08
:1025B00001F0013404E200500A08000E015424E244
:1025C000FD0EDBCF9AF2FE0EDBCF9BF20201FF0E77
:1025D000D8809A57000E9B57FD0EDBCF9CF2FE0E63
:1025E000DBCF9DF2FD0EDBCF9EF2FE0EDBCF9FF226
:1025F000FD0EDBCFA0F2FE0EDBCFA1F2FF0ED880E6
:10260000A057000EA1570AD07F0E02019A6F9B6B54
:102610009C6F9D6B9E6F9F6BA06FA16BE552E7CF88
:04262000D9FF1200CC
:0C262400AEEC19F088A413D088A60ED0EC
:10263000500E0201B5AF02D0D89003D0B45D000EA9
:10264000B55903E30BD856EC18F003D007D856EC75
:1026500018F00201B42B000EB5231200D9CFE6FF0B
:10266000E1CFD9FF040EE1260DC24EF0EDEC3DF0B6
:102670004CC004F04DC005F04EC006F04FC007F04E
:1026800001018051126E136A0201D351146E156A52
:102690001450125C106E15501358116E10C04DF08E
:1026A00011C04EF000EC3EF04CC00CF04DC00DF0EF
:1026B0004EC00EF04FC00FF0516A526A536A400E7E
:1026C000546E0CC04CF00DC04DF00EC04EF00FC05B
:1026D0004FF0AAEC3EF04CC008F04DC009F04EC0DF
:1026E0000AF04FC00BF008C051F009C052F00AC008
:1026F00053F00BC054F004C04CF005C04DF006C0C0
:102700004EF007C04FF013EC3EF04CC000F04DC04F
:1027100001F04EC002F04FC003F0516A526A700ED1
:10272000536E410E546E00C04CF001C04DF002C01B
:102730004EF003C04FF014EC3EF002EC40F0020EFD
:102740004DC0DBFF030E4EC0DBFFB6C218F2080E11
:102750000201B61901E1B75102E149EF18F0070E85
:10276000B61901E1B75102E13FEF18F0060EB619B4
:1027700001E1B75102E138EF18F0050EB61901E199
:10278000B75102E134EF18F0040EB61901E1B75168
:1027900001E162D3030EB61901E1B75101E12AD27A
:1027A000020EB61901E1B75101E1C5D0010EB6190B
:1027B00001E1B75129E0B65101E1B75102E050EF14
:1027C00018F0B53504E2B4510A08000EB55501E31E
:1027D00019D0B53504E2B4512808000EB55508E308
:1027E000B10EE66EE66829EC19F0E552E5520AD022
:1027F000B62B000EB723B4C2B8F2B5C2B9F20201CB
:10280000640ED56F50EF18F0B851B45D006EB5513D
:10281000B955016E00C0DEFF01C0DDFFDECF00F064
:10282000DDCF01F0280E526E536A00C04DF001C09A
:102830004EF06AEC3FF049C000F04AC001F0D89079
:10284000015004E60F0E005C000E01581EE2DECFC0
:1028500002F0DDCF03F0280E526E536A02C04DF035
:1028600003C04EF06AEC3FF049C002F04AC003F0EA
:102870000E0E021801E1035008E07F0EE66EE66AD4
:1028800029EC19F0E552E55255D0DECF00F0DDCF4E
:1028900001F0280E526E536A00C04DF001C04EF098
:1028A0006AEC3FF049C000F04AC001F00E0E00187B
:1028B00001E1015038E12AEC3AF000092FE00EC2A4
:1028C000D5F20DC2CDF20201BC6BBD6B0101865188
:1028D0000101FA6FFB6BFAC102F2BAC203F2FB51BB
:1028E0000201BB19E8AE02D0BB3507D0BA510101D5
:1028F000FA5D0201BB510101FB590BE20201BA1D55
:1029000001E1BB1D06E0B62B000EB723BE6BBF6B0B
:1029100004D0FAC1BAF2FBC1BBF204D00201B40781
:10292000000EB55B07D09D0EE66EE66829EC19F047
:10293000E552E552B5D32AEC3AF0000901E1BFD0E7
:102940000EC2D5F20DC2CDF20201010E196F0101C6
:102950008051026E036A0201D351046E056A04506D
:10296000025C006E05500358016E013404E2005011
:102970001E08000E015406E202010D5103E1A7EC0E
:1029800019F09CD001018051026E036A0201D351FB
:10299000046E056A0450025C006E05500358016E17
:1029A000D890015004E60A0E005C000E015806E2C1
:1029B00002010D5103E1A0EC19F080D002010D518C
:1029C00048E10201BE2B000EBF237F0EE66EE66AD1
:1029D00029EC19F0E552E552140E0201BFAF02D006
:1029E000D89003D0BE5D000EBF5932E3140EE66EE0
:1029F000E66A000EE66EE66A23EC1AF0E552E5524E
:102A0000E552E55202010E51006E016AA90ED8800E
:102A10000056000E0156050E0026000E012200C0D1
:102A2000E6FF01C0E6FFA90EE66EE66A8EEC1AF03C
:102A3000E552E552E552E5520201C46BC56B030E47
:102A4000B66FB76BB4C2B8F2B5C2B9F2BE6BBF6BAA
:102A500035D0020EDBCFE6FF030EDBCFE6FF8DECB9
:102A600011F0E552E552F3CF00F0F4CF01F0D89029
:102A7000015004E61E0E005C000E015810E2020E2A
:102A8000DBCF00F0030EDBCF01F00001800E01145C
:102A900003E0A7EC19F002D0A0EC19F00FD0020E61
:102AA000DBCF00F0030EDBCF01F00001800E01143C
:102AB00003E099EC19F002D092EC19F09AD00201DF
:102AC000020E196FA40EE66E700EE66E7D0EE66EB7
:102AD0003F0EE66E0451E66EE66A3EEC11F0F56ECE
:102AE000060EE15EF5504BC000F04CC001F04DC049
:102AF00002F04EC003F000C04CF001C04DF002C027
:102B00004EF003C04FF0DBEC3FF04EC004F2A40ED9
:102B1000E66E700EE66E7D0EE66E3F0EE66E02010C
:102B20000551E66EE66A3EEC11F0F56E060EE15ECA
:102B3000F5504BC000F04CC001F04DC002F04EC04B
:102B400003F000C04CF001C04DF002C04EF003C0D5
:102B50004FF0DBEC3FF04EC005F2A40EE66E700EB7
:102B6000E66E7D0EE66E3F0EE66E02010651E66EE3
:102B7000E66A3EEC11F0F56E060EE15EF5504BC0D4
:102B800000F04CC001F04DC002F04EC003F000C098
:102B90004CF001C04DF002C04EF003C04FF0DBEC32
:102BA0003FF04EC006F2A40EE66E700EE66E7D0E8D
:102BB000E66E3F0EE66E02010751E66EE66A3EECF7
:102BC00011F0F56E060EE15EF5504BC000F04CC002
:102BD00001F04DC002F04EC003F000C04CF001C047
:102BE0004DF002C04EF003C04FF0DBEC3FF04EC0A2
:102BF00007F256D2B851B45D006EB551B955016EA9
:102C000000C0DEFF01C0DDFF2AEC3AF0000926E03B
:102C100002010D5123E101018051026E036A02019C
:102C2000D351046E056A0450025C006E05500358CF
:102C3000016E013404E200502808000E01540EE237
:102C40000201C42B000EC5230A0EC41901E1C551AF
:102C500005E1040EB66FB76BBE6BBF6B2AEC3AF0A2
:102C6000000924E001018051026E036A0201D35180
:102C7000046E056A0450025C006E05500358016E34
:102C8000D890015004E6140E005C000E01580EE2CC
:102C90000201C42B000EC5230A0EC41901E1C5515F
:102CA00005E1040EB66FB76BBE6BBF6BDECF00F0F5
:102CB000DDCF01F03C0E526E536A00C04DF001C0F2
:102CC0004EF06AEC3FF049C000F04AC001F002014A
:102CD0000150C119E8AE02D0C13504D0C051005C2A
:102CE000C151015807E29D0EE66EE668B2DAE55280
:102CF000E552AFD0DECF00F0DDCF01F03C0E526EDA
:102D0000536A00C04DF001C04EF06AEC3FF049C07C
:102D100000F04AC001F0D890015004E6360E005C85
:102D2000000E015807E27F0EE66EE66A92DAE5527F
:102D3000E5528FD0DECF00F0DDCF01F03C0E526EB9
:102D4000536A00C04DF001C04EF06AEC3FF049C03C
:102D500000F04AC001F0D890015004E6330E005C48
:102D6000000E015876E32AEC3AF000096EE0020109
:102D70000E51006E016AA90E001801E101501BE11D
:102D80000201DB510101815D0F0815E20201BE2B3A
:102D9000000EBF23BEC21AF2B407B55BBF3504E212
:102DA000BE510A08000EBF5505E2050EB66FB76B9F
:102DB000BE6BBF6B49D002010E51046E056AA90EAD
:102DC000D8800456000E0556D89004360536D890A3
:102DD0000436053604C0E6FF05C0E6FF320EE66E97
:102DE000E66A08EC11F0E552E552E552E552F3CF00
:102DF00002F0F4CF03F002C0E6FF03C0E6FF0A0EC4
:102E0000E66EE66AEBDAE552E552E552E552F3CFBB
:102E100000F0F4CF01F000C0E6FF01C0E6FF0A0EAB
:102E20000201076AC025066EC151072206C0E6FFEF
:102E300007C0E6FF08EC11F0E552E552E552E55215
:102E4000F3CFC0F2F4CFC1F204D00201B407000EF8
:102E5000B55BC0C21BF224D12AEC3AF0000969E04C
:102E600001018051026E036A0201D351046E056AAA
:102E70000450025C006E05500358016E013404E2F8
:102E800000501E08000E015405E202010D5102E13E
:102E90005EDA4ED001018051026E036A0201D35105
:102EA000046E056A0450025C006E05500358016E02
:102EB000D890015004E60A0E005C000E015805E2AD
:102EC00002010D5102E13CDA33D002010D512CE137
:102ED00001018051026E036A0201D351046E056A3A
:102EE0000450025C006E05500358016E013404E288
:102EF00000500A08000E015417E20201BE2B000E1A
:102F0000BF230A0EBE1901E1BF5107E1030EB66FE0
:102F1000B76BBE6BBF6BC46BC56B7F0EE66EE66AAC
:102F200098D9E552E55204D0020E0201B66FB76B94
:102F30009AD00201020E196FA40EE66E700EE66EB4
:102F40007D0EE66E3F0EE66E0451E66EE66A3EECDE
:102F500011F0F56E060EE15EF5504BC000F04CC06E
:102F600001F04DC002F04EC003F000C04CF001C0B3
:102F70004DF002C04EF003C04FF0DBEC3FF04EC00E
:102F800004F2A40EE66E700EE66E7D0EE66E3F0E47
:102F9000E66E02010551E66EE66A3EEC11F0F56E52
:102FA000060EE15EF5504BC000F04CC001F04DC084
:102FB00002F04EC003F000C04CF001C04DF002C062
:102FC0004EF003C04FF0DBEC3FF04EC005F2A40E14
:102FD000E66E700EE66E7D0EE66E3F0EE66E020148
:102FE0000651E66EE66A3EEC11F0F56E060EE15E05
:102FF000F5504BC000F04CC001F04DC002F04EC087
:1030000003F000C04CF001C04DF002C04EF003C010
:103010004FF0DBEC3FF04EC006F2A40EE66E700EF1
:10302000E66E7D0EE66E3F0EE66E02010751E66E1D
:10303000E66A3EEC11F0F56E060EE15EF5504BC00F
:1030400000F04CC001F04DC002F04EC003F000C0D3
:103050004CF001C04DF002C04EF003C04FF0DBEC6D
:103060003FF04EC007F21CD0040EB26FB36B18D005
:103070007F0EE66EE66AEDD8E552E55211D052D9E0
:103080002AEC3AF0000904E0020E0201B66FB76BB9
:1030900007D07F0EE66EE66ADCD8E552E55200D036
:1030A000D9CFE1FFE552E7CFD9FF1200040E0201AC
:1030B000B21901E1B35156E0030EB21901E1B35167
:1030C00050E0020EB21901E1B35124E0010EB21931
:1030D00001E1B35111E0B25101E1B35101E044D03B
:1030E0008D948D50040B02E08C9401D08C848D90D3
:1030F000010EB26FB36B38D00201640E086F81BE4F
:1031000008D07F0E086F64EC56F0020E0201B26F19
:10311000B36B2AD00101F90507E1C00EE66EE66A3D
:1031200056EC56F0E552E552020E0101F95D08E158
:103130003A0EE66E020EE66E56EC56F0E552E55299
:10314000030E0101F95D08E1980EE66E030EE66ECE
:1031500056EC56F0E552E552030E0201B26FB36B26
:1031600003D002D017D800D00201B33504E2B25127
:103170000108000EB35502E2BFEC56F002010851FF
:10318000006E016AFF0ED8800056000E015600C086
:1031900008F212000201C851C91110E116C300F073
:1031A00017C301F0730E005E000E015A00C0E6FF67
:1031B00001C0E6FF56EC56F0E552E5520201140E4E
:1031C000C81901E1C95104E1B4C2FEF1B5C2FFF171
:1031D0000A0EC81901E1C95107E18D848D50040B15
:1031E00002E08C9401D08C841E0EC81901E1C951F3
:1031F00001E18D80320EC9AF02D0D89003D0C85DF6
:10320000000EC9590FE3640EC9AF02D0D89003D0A5
:10321000C85D000EC95906E2610EE66EE66A19D86D
:10322000E552E5525A0E0201C9AF02D0D89003D040
:10323000C85D000EC95906E37F0EE66EE66A09D83E
:10324000E552E552BFEC56F00201C82B000EC9232F
:103250001200D9CFE6FFE1CFD9FFFD0EDBCF00F0A2
:10326000FE0EDBCF01F0090E00240201076F056F8F
:10327000FD0EDBCF00F0FE0EDBCF01F0FF0ED8809D
:103280000056000E015600C006F200C004F2E552DE
:10329000E7CFD9FF1200D9CFE6FFE1CFD9FF7F0EEC
:1032A000E66EE66AE66EE66AFD0EDBCFE6FFFE0E30
:1032B000DBCFE6FF5EEC04F0F56E060EE15EF55046
:1032C000E552E7CFD9FF1200D9CFE6FFE1CFD9FF12
:1032D000FD0EDBCFE6FFFE0EDBCFE6FF7F0EE66ED8
:1032E000E66AE66EE66A5EEC04F0F56E060EE15EF6
:1032F000F55002010651006E016AFF0ED88000569B
:10330000000E015600C006F20451006E016AFF0E65
:10331000D8800056000E015600C004F2E552E7CFF7
:10332000D9FF12000201A80E046F056F066F076F28
:1033300012000201680E046F056F066F076F12001E
:103340000201990E046F056F066F076F12000201EC
:103350006F0E046F056F066F076F120088BA04D0F6
:103360000101030EF96F09D088B804D00101010EE4
:10337000F96F03D00101020EF96F1200D9CFE6FFF9
:10338000E1CFD9FFFD0EDBCF00F0FE0EDBCF01F069
:103390000001800E011403E0F36AF46A1BD0FD0EF5
:1033A000DBCF00F0FE0EDBCF01F0013404E2005071
:1033B000FF08000E015403E2F368F46A0BD0FD0E1F
:1033C000DBCF00F0FE0EDBCF01F000C0F3FF01C049
:1033D000F4FF00D0E552E7CFD9FF1200D9CFE6FFC6
:1033E000E1CFD9FFFD0EDBCF00F0FE0EDBCF01F009
:1033F000FB0EDBCF02F0FC0EDBCF03F00350011815
:10340000E8AE02D0013404D00050025C01500358F1
:103410000BE2FD0EDBCF00F0FE0EDBCF01F000C0B3
:10342000F3FF01C0F4FF0BD0FB0EDBCF00F0FC0E6E
:10343000DBCF01F000C0F3FF01C0F4FF00D0E55284
:10344000E7CFD9FF1200D9CFE6FFE1CFD9FFFD0EBC
:10345000DBCFCDF2DBCF02F0FE0EDBCF03F0FB0EB5
:10346000DB50025C006EFC0EDB500358016E010164
:10347000F151046E056A05500118E8AE02D001341E
:1034800004D00050045C0150055811E2FD0EDBCF62
:1034900002F0FE0EDBCF03F0FB0EDB50025C006E91
:1034A000FC0EDB500358016E00C0CCF202D0F1C11B
:1034B000CCF2FB0EDBCF02F0FC0EDBCF03F0FD0EF7
:1034C000DB500224006EFE0EDB500320016EF25131
:1034D000000101AE02D0D89003D0005C000E01586C
:1034E00011E2FB0EDBCF02F0FC0EDBCF03F0FD0E92
:1034F000DB500224006EFE0EDB500320016E00C084
:10350000CEF202D0F2C1CEF2FD0EDBCFE6FF46ECEA
:103510003AF0E552E552E7CFD9FF1200D9CFE6FFE6
:10352000E1CFD9FFFD0EDBCFD5F2DBCF02F0FE0EEF
:10353000DBCF03F0FB0EDB50025C006EFC0EDB50B9
:103540000358016E0101F451046E056A055001181B
:10355000E8AE02D0013404D00050045C015005589C
:1035600011E2FD0EDBCF02F0FE0EDBCF03F0FB0E0F
:10357000DB50025C006EFC0EDB500358016E00C095
:10358000D4F202D0F4C1D4F2FB0EDBCF02F0FC0E79
:10359000DBCF03F0FD0EDB500224006EFE0EDB508D
:1035A0000320016EF551000101AE02D0D89003D086
:1035B000005C000E015811E2FB0EDBCF02F0FC0EA6
:1035C000DBCF03F0FD0EDB500224006EFE0EDB505D
:1035D0000320016E00C0D6F202D0F5C1D6F2FD0E76
:1035E000DBCFE6FF51EC3AF0E552E552E7CFD9FFE9
:1035F0001200F1C1CCF2F2C1CEF2F3C1CDF2F8C1AA
:10360000D2F2CDC2E6FF46EC3AF0E5521200F4C128
:10361000D4F2F5C1D6F2F6C1D5F2F8C1DAF2D5C2CC
:10362000E6FF51EC3AF0E5521200E3DF07EF1BF042
:10363000D9CFE6FFE1CFD9FF0201CC51CE5D006EBC
:10364000FE0EDB50D880005404E2FE0EDBCFD2F237
:1036500003D0CC51CE5DD26FE552E7CFD9FF120037
:10366000D9CFE6FFE1CFD9FF0201D451D65D006E7C
:10367000FE0EDB50D880005404E2FE0EDBCFDAF2FF
:1036800003D0D451D65DDA6FE552E7CFD9FF1200EF
:10369000CCC2F1F1CEC2F2F1CDC2F3F1D4C2F4F159
:1036A000D6C2F5F1D5C2F6F1D2C2F8F1DAC2F7F11D
:0236B000120006
:0E36B200D9CFE6FFE1CFD9FF060EE1260301D6
:1036C0003851090A01E14FD3010A01E114D30F0A6D
:1036D00001E1EAD2010A01E147D2030A01E130D255
:1036E000010A01E17FD0070A62E0010A2EE0030A25
:1036F00027E0010A01E04FD3010E376F0201606B32
:103700006051006E016A150E005C000E015814E253
:103710006051EA6ACA0FE96E020EEA22010EEFCF8B
:10372000DBFF6051EA6A410FE96E020EEA22010EE8
:10373000DBCFEFFF602BE4D70301010E386F2BD3F3
:1037400033DB0301020E386F26D37BEC36F0DF6EDD
:10375000610EDF5C0EE3DF5072080BE30301030E22
:10376000386FDFCF5EF2610EDF5C020F02015D6F2A
:103770001DD0750EDF5C06E1D9EC20F00301060ECA
:10378000386F14D0760EDF5C04E10301070E386F4A
:103790000DD0770EDF5C04E10301080E386F06D010
:1037A000780EDF5C03E10301386B376BF4D2020162
:1037B0005C6B7BEC36F0000901E0FBD79C0E006EE1
:1037C000610E016E026A00C0E6FF01C0E6FF02C0A2
:1037D000E6FFFBEC5CF0E552E552E5520301040E16
:1037E000386FD9D27BEC36F0DF6E300EDF5C03E34E
:1037F000DF50390806E22B0EDF5C03E02D0EDF5CA4
:1038000019E102015C51006E016A060E005C000EB7
:10381000015810E2DFCFE6FF7FEC36F0E5520201FF
:103820005C51EA6A560FE96E020EEA22DFCFEFFF23
:103830005C2B85D10D0EDF5C01E081D12D0E0201E4
:10384000565D22E1040EDB68050EDB685C07606BE9
:103850006051006E016A060E005C000E015813E212
:103860006029EA6A560FE96E020EEA22EF50E66E10
:103870006051EA6A560FE96E020EEA22E552E750FD
:10388000EF6E602BE5D72FD02B0E565D25E1010E94
:10389000F36E040EF3CFDBFF050EDB6A5C07606B93
:1038A0006051006E016A060E005C000E015813E2C2
:1038B0006029EA6A560FE96E020EEA22EF50E66EC0
:1038C0006051EA6A560FE96E020EEA22E552E750AD
:1038D000EF6E602BE5D707D0010EF36E040EF3CF29
:1038E000DBFF050EDB6A5C51030808E2020EDB6AAF
:1038F000010EF36E030EF3CFDBFFCCD0030E5C5D45
:1039000056E1300E565D006E016A640E4D6E4E6AD1
:1039100000C052F001C053F0BDEC3FF0020E4BC0AE
:10392000DBFF030E4CC0DBFF300E0201575D026E61
:10393000036A0A0E4D6E4E6A02C052F003C053F085
:10394000BDEC3FF04BC000F04CC001F0D950020F6D
:10395000E96EDACFEAFF0050EE260150ED22300E7C
:103960000201585D006E016AD950020FE96EDACF8C
:10397000EAFF0050EE260150ED22040EDBCF00F0EE
:10398000050EDBCF01F0D950020FE96EDACFEAFF66
:1039900000C052F001C053F0EECF4DF0EDCF4EF02D
:1039A000BDEC3FF04BC0EEFF4CC0EDFF73D0020EFC
:1039B0005C5D35E1300E565D0A0DF350E66ED95070
:1039C000020FE96EDACFEAFFE552E750EE6EED6ADC
:1039D000300E575D006E016AD950020FE96EDACFE2
:1039E000EAFF0050EE260150ED22040EDBCF00F07E
:1039F000050EDBCF01F0D950020FE96EDACFEAFFF6
:103A000000C052F001C053F0EECF4DF0EDCF4EF0BC
:103A1000BDEC3FF04BC0EEFF4CC0EDFF3BD05C0572
:103A200026E1300E565DE66ED950020FE96EDACF10
:103A3000EAFFE552E750EE6EED6A040EDBCF00F0D0
:103A4000050EDBCF01F0D950020FE96EDACFEAFFA5
:103A500000C052F001C053F0EECF4DF0EDCF4EF06C
:103A6000BDEC3FF04BC0EEFF4CC0EDFF13D05C51FE
:103A700011E15D51EA6A410FE96E020EEA22EF5050
:103A8000E66ED950020FE96EDACFEAFFE552E75051
:103A9000EE6EED6A660E02015E5D03E06E0E5E5D27
:103AA00026E1D950020FE96EDACFEAFF010EEE18D7
:103AB00001E1ED500BE0D950020FE96EDACFEAFFD9
:103AC000FF0EEE1802E1FF0EED180DE15D51EA6AFE
:103AD000410FE96E020EEA22020EDBCFEFFF030177
:103AE000010E386F03D00301050E386F28D0020E87
:103AF000DBCF00F0030EDBCF01F00001800E0114DC
:103B00001BE1020EDBCF02F0030EDBCF03F0033428
:103B100004E20250FF08000E03540EE302015D515F
:103B2000EA6A410FE96E020EEA22020EDBCFEFFFD6
:103B30000301010E386F03D00301050E386F2BD13E
:103B40007C0E006E610E016E026A00C0E6FF01C0CD
:103B5000E6FF02C0E6FFFBEC5CF0E552E552E55201
:103B60000301030E386F17D17BEC36F0DF6E610E68
:103B7000DF5C02E102010D07620EDF5C04E10A0E68
:103B800002010D5F90D0630EDF5C03E102010D2B9B
:103B90008AD0640EDF5C04E10A0E02010D2783D097
:103BA000650EDF5C03E10DC243F27DD0660EDF5C83
:103BB00003E10DC244F277D0670EDF5C03E10DC272
:103BC00045F271D0680EDF5C03E102010E2B6BD071
:103BD000690EDF5C04E10A0E02010E2764D06A0E52
:103BE000DF5C03E102010E075ED06B0EDF5C04E1D7
:103BF0000A0E02010E5F57D06C0EDF5C03E10EC2AD
:103C00004BF251D06D0EDF5C03E10EC24CF24BD093
:103C10006E0EDF5C03E10EC24DF245D06F0EDF5C2D
:103C20003CE1790E006E610E016E026A00C0E6FF93
:103C300001C0E6FF02C0E6FFFBEC5CF0E552E55296
:103C4000E55202010D51E66EE66A6E0E006E610EDF
:103C5000016E026A00C0E6FF01C0E6FF02C0E6FF97
:103C6000FBEC5CF0F56E050EE15EF55002010E51C5
:103C7000E66EE66A640E006E610E016E026A00C0B6
:103C8000E6FF01C0E6FF02C0E6FFFBEC5CF0F56E6C
:103C9000050EE15EF5508DDA06D0700EDF5C03E1B3
:103CA0000301010E386F77D00201436B7C0E446F25
:103CB000F80E456F030E466F060E476F48693E0EBD
:103CC000496F4F0E4A6F5E0E4B6F900E4C6FC20ED7
:103CD0004D6F080E4E6F060E4F6F010E506F320E75
:103CE000516F770E526F060E536F140E546F03010F
:103CF000010E386F50D00201606B6051006E016A96
:103D0000150E005C000E015814E26051EA6A410F82
:103D1000E96E020EEA22010EEFCFDBFF6051EA6A84
:103D2000CA0FE96E020EEA22010EDBCFEFFF602B15
:103D3000E4D7200EE66EE66A6DDBE552E5524E0EE4
:103D4000006E610E016E026A00C0E6FF01C0E6FF70
:103D500002C0E6FFFBEC5CF0E552E552E5520301E0
:103D6000090E386F18D0F1EC5AF0200813E1470E15
:103D7000006E610E016E026A00C0E6FF01C0E6FF40
:103D800002C0E6FFFBEC5CF0E552E552E5520301B0
:103D9000010E386F00D00301375100D0D9CFE1FFB9
:103DA000E552E7CFD9FF1200790E006E610E016E69
:103DB000026A00C0E6FF01C0E6FF02C0E6FFFBECBE
:103DC0005CF0E552E552E552790E006E610E016E2F
:103DD000026A00C0E6FF01C0E6FF02C0E6FFFBEC9E
:103DE0005CF0E552E552E55202014351E66EE66AA7
:103DF000290E006E610E016E026A00C0E6FF01C06E
:103E0000E6FF02C0E6FFFBEC5CF0F56E050EE15E3E
:103E1000F55002014451E66EE66A080E006E610E2E
:103E2000016E026A00C0E6FF01C0E6FF02C0E6FFC5
:103E3000FBEC5CF0F56E050EE15EF55002014551BC
:103E4000E66EE66AEA0E006E600E016E026A00C05F
:103E5000E6FF01C0E6FF02C0E6FFFBEC5CF0F56E9A
:103E6000050EE15EF55002014651E66EE66ACF0EA0
:103E7000006E600E016E026A00C0E6FF01C0E6FF40
:103E800002C0E6FFFBEC5CF0F56E050EE15EF5505E
:103E900002014751E66EE66AA90E006E600E016EE1
:103EA000026A00C0E6FF01C0E6FF02C0E6FFFBECCD
:103EB0005CF0F56E050EE15EF55048C200F0016A57
:103EC00000BE016800C0E6FF01C0E6FF840E026E7E
:103ED000600E036E046A02C0E6FF03C0E6FF04C082
:103EE000E6FFFBEC5CF0F56E050EE15EF5500201BD
:103EF0004951E66EE66A5D0E006E600E016E026A62
:103F000000C0E6FF01C0E6FF02C0E6FFFBEC5CF08C
:103F1000F56E050EE15EF55002014A51E66EE66A65
:103F20003A0E006E600E016E026A00C0E6FF01C02C
:103F3000E6FF02C0E6FFFBEC5CF0F56E050EE15E0D
:103F4000F55002014B51E66EE66A1B0E006E600EE4
:103F5000016E026A00C0E6FF01C0E6FF02C0E6FF94
:103F6000FBEC5CF0F56E050EE15EF55002014C5184
:103F7000E66EE66AF90E006E5F0E016E026A00C020
:103F8000E6FF01C0E6FF02C0E6FFFBEC5CF0F56E69
:103F9000050EE15EF55002014D51E66EE66ADA0E5D
:103FA000006E5F0E016E026A00C0E6FF01C0E6FF10
:103FB00002C0E6FFFBEC5CF0F56E050EE15EF5502D
:103FC00002014E51E66EE66ABE0E006E5F0E016E95
:103FD000026A00C0E6FF01C0E6FF02C0E6FFFBEC9C
:103FE0005CF0F56E050EE15EF55002014F51E66E94
:103FF000E66A970E006E5F0E016E026A00C0E6FF71
:1040000001C0E6FF02C0E6FFFBEC5CF0F56E050EBA
:10401000E15EF55050C200F0016A00BE016800C0C8
:10402000E6FF01C0E6FF710E026E5F0E036E046ACA
:1040300002C0E6FF03C0E6FF04C0E6FFFBEC5CF055
:10404000F56E050EE15EF55002015151E66EE66A2D
:10405000490E006E5F0E016E026A00C0E6FF01C0ED
:10406000E6FF02C0E6FFFBEC5CF0F56E050EE15EDC
:10407000F55002015251E66EE66A250E006E5F0EA3
:10408000016E026A00C0E6FF01C0E6FF02C0E6FF63
:10409000FBEC5CF0F56E050EE15EF550020153514C
:1040A000E66EE66A060E006E5F0E016E026A00C0E2
:1040B000E6FF01C0E6FF02C0E6FFFBEC5CF0F56E38
:1040C000050EE15EF55002015451E66EE66ADF0E20
:1040D000006E5E0E016E026A00C0E6FF01C0E6FFE0
:1040E00002C0E6FFFBEC5CF0F56E050EE15EF550FC
:1040F000790E006E610E016E026A00C0E6FF01C01B
:10410000E6FF02C0E6FFFBEC5CF0E552E552E5524B
:10411000B90E006E5E0E016E026A00C0E6FF01C0BD
:10412000E6FF02C0E6FFFBEC5CF0E552E552E5522B
:104130009F0E006E5E0E016E026A00C0E6FF01C0B7
:10414000E6FF02C0E6FFFBEC5CF0E552E552E5520B
:104150008C0E006E5E0E016E026A00C0E6FF01C0AA
:10416000E6FF02C0E6FFFBEC5CF0E552E552E552EB
:10417000810E006E5E0E016E026A00C0E6FF01C095
:10418000E6FF02C0E6FFFBEC5CF0E552E552E552CB
:10419000790E006E610E016E026A00C0E6FF01C07A
:1041A000E6FF02C0E6FFFBEC5CF0E552E552E552AB
:1041B0001200790E006E610E016E026A00C0E6FF09
:1041C00001C0E6FF02C0E6FFFBEC5CF0E552E55201
:1041D000E552790E006E610E016E026A00C0E6FFC4
:1041E00001C0E6FF02C0E6FFFBEC5CF0E552E552E1
:1041F000E552690E006E5E0E016E026A00C0E6FFB7
:1042000001C0E6FF02C0E6FFFBEC5CF0E552E552C0
:10421000E552500E006E5E0E016E026A00C0E6FFAF
:1042200001C0E6FF02C0E6FFFBEC5CF0E552E552A0
:10423000E552370E006E5E0E016E026A00C0E6FFA8
:1042400001C0E6FF02C0E6FFFBEC5CF0E552E55280
:10425000E5521D0E006E5E0E016E026A00C0E6FFA2
:1042600001C0E6FF02C0E6FFFBEC5CF0E552E55260
:10427000E552010E006E5E0E016E026A00C0E6FF9E
:1042800001C0E6FF02C0E6FFFBEC5CF0E552E55240
:10429000E552E20E006E5D0E016E026A00C0E6FF9E
:1042A00001C0E6FF02C0E6FFFBEC5CF0E552E55220
:1042B000E552C60E006E5D0E016E026A00C0E6FF9A
:1042C00001C0E6FF02C0E6FFFBEC5CF0E552E55200
:1042D000E552AF0E006E5D0E016E026A00C0E6FF91
:1042E00001C0E6FF02C0E6FFFBEC5CF0E552E552E0
:1042F000E552970E006E5D0E016E026A00C0E6FF89
:1043000001C0E6FF02C0E6FFFBEC5CF0E552E552BF
:10431000E5527E0E006E5D0E016E026A00C0E6FF81
:1043200001C0E6FF02C0E6FFFBEC5CF0E552E5529F
:10433000E552640E006E5D0E016E026A00C0E6FF7B
:1043400001C0E6FF02C0E6FFFBEC5CF0E552E5527F
:10435000E552470E006E5D0E016E026A00C0E6FF78
:1043600001C0E6FF02C0E6FFFBEC5CF0E552E5525F
:10437000E552270E006E5D0E016E026A00C0E6FF78
:1043800001C0E6FF02C0E6FFFBEC5CF0E552E5523F
:10439000E5520A0E006E5D0E016E026A00C0E6FF75
:1043A00001C0E6FF02C0E6FFFBEC5CF0E552E5521F
:1043B000E552E90E006E5C0E016E026A00C0E6FF77
:1043C00001C0E6FF02C0E6FFFBEC5CF0E552E552FF
:1043D000E552C60E006E5C0E016E026A00C0E6FF7A
:1043E00001C0E6FF02C0E6FFFBEC5CF0E552E552DF
:1043F000E552790E006E610E016E026A00C0E6FFA2
:1044000001C0E6FF02C0E6FFFBEC5CF0E552E552BE
:10441000E5521200D9CFE6FFE1CFD9FF050EE12624
:10442000030EDB6A040EDB6A0201470ECA6F4B0EF5
:10443000CB6FDE6ADD6ADECF00F0DDCF01F0140E57
:10444000005C000E015834E2DECFE9FFDDCFEAFF69
:10445000CA0EE926020EEA22020EEFCFDBFFDBCF07
:10446000E6FFFD0EDBCF02F0FE0EDBCF03F0DE50E9
:104470000224006EDD500320016E00C0E6FF01C083
:10448000E6FF3FEC5AF0E552E552E552020EDB50F2
:10449000006E016AD950030FE96EDACFEAFF0050CF
:1044A000EE260150ED22DF2A010E01E3DB2AC3D7FD
:1044B000030EDBCFE6FF150EE76EFD0EDBCF00F03F
:1044C000FE0EDBCF01F0E7500026000E01220006B1
:1044D000015A00C0E6FF01C0E6FF3FEC5AF0E5528A
:1044E000E552E552D9CFE1FFE552E7CFD9FF1200FF
:1044F000B4EC27F0FB0EDBCFF3FFDB06F350000933
:104500000AE002EC28F0FA0E6DEC28F0F3E1011C51
:10451000F1E1010E01D0000EE3EF27F0B4EC27F03B
:104520003B0EE12402E3E168E652E16E010EDB6A34
:10453000020EDB6AF90EDBCFF6FFFA0EDBCFF7FFD8
:10454000FB0EDBCFF8FF0800F550DF6EDF5002E115
:1045500009EF27F0250EDF5C02E0FCEF26F0030EEA
:10456000DB6A040EDB6A050EDB6A060EDB6A070EE9
:10457000DB6A1CEC27F02D0EDF5C0CE02B0EDF5C01
:1045800009E0200EDF5C06E0230EDF5C03E0300E66
:10459000DF5C1AE1DF50300A14E0130A0FE0030A6F
:1045A0000AE00B0A05E0060AE4E1030EDB80E1D72E
:1045B000030EDB82DED7030EDB84DBD7030EDB8644
:1045C000D8D7030EDB88D5D72A0EDF5C1BE118ECA9
:1045D00027F066EC27F010E0030EDB804D684E6894
:1045E000130EDBCF52F0140EDBCF53F090EC3FF004
:1045F000040E4BC0DBFF03D0130E4FEC27F01CEC76
:1046000027F00BD0090EDB6ABDEC27F003E031EC9C
:1046100028F0FAD7090E4FEC27F0030EDBB0DB9839
:104620002E0EDF5C1BE11CEC27F02A0EDF5C0BE199
:1046300018EC27F066EC27F003E1130EA1EC27F04D
:104640001CEC27F00BD0090EDB6ABDEC27F003E071
:1046500031EC28F0FAD7090EA1EC27F0680EDF5CE8
:1046600007E11CEC27F0680EDF5C1DE1030E18D09B
:10467000740EDF5C17E07A0EDF5C14E0480EDF5C3E
:1046800006E0540EDF5C03E05A0EDF5C02E1020E2E
:1046900007D06C0EDF5C03E06A0EDF5C04E1010E04
:1046A000F4EC27F0C9DBDF506E0A01E181D31E0A6A
:1046B00001E192D1200A01E18FD13F0A01E149D104
:1046C0001A0A01E146D10D0A01E143D1200A01E1B4
:1046D00040D13A0A01E13DD1200A01E13AD1260A4E
:1046E00001E135D10D0A01E132D11A0A01E1D9D037
:1046F000200A4AE0300A1FE0460A0EE0250A01E0DF
:1047000085D3D950F90FE96EFF0EDA20EA6E010E5B
:10471000EE5E000EEE5AEE5A02EC28F0250EE66E22
:1047200095DB03E1011C01E16BD3FEEC27F001E214
:104730006DD3DB2A6BD3080EDB6A040EDB50010855
:1047400006E2040EDB04C6EC27F0DB508BDB080E20
:10475000DB5009E0030EDB50010B05E172DB01E0E9
:104760004FD3080EDB6A64DBEFCFDFFF76EC28F077
:1047700003E1011C01E144D3FEEC27F001E3DB2A55
:1047800060DB01E143D33CD3070EDB5002080FE1AD
:1047900042EC28F0030E09EC28F00E0EEECFDBFF02
:1047A0000F0EEECFDBFF100EEECFDBFF20D0F70EAB
:1047B000DBCF03F0F80EDBCF04F0020E035E000E39
:1047C000045AF70E03C0DBFFF80E04C0DBFF03C082
:1047D000E9FF04C0EAFFF9EC27F0026A0E0E00C000
:1047E000DBFF0F0E01C0DBFF100E02C0DBFF0E0E61
:1047F000DBCFE6FF0F0EDBCFE6FF100EDBCFE6FFD1
:1048000001EC5EF0E552E552E552130E4CC0DBFFC1
:10481000140E4DC0DBFF060EDB5005E0130E3DEC21
:1048200028F001E26ADB61EC28F002E2130E37DBCC
:1048300024EC28F006E0040E3DEC28F002E2050E20
:104840002EDB030EDBB005D0FCDA01E0D9D2080E76
:10485000DB6A090EDB6A0E0EDBCFF6FF0F0EDBCF35
:10486000F7FF100EDBCFF8FF0800F550DF6EDF50CA
:1048700014E067EC28F011E276EC28F003E1011C6B
:1048800001E1BED2BBDB01E3DB2A090EDB2AD950F2
:104890000E0FE96E000ECBDBE7D7D3DA01E1B6D21B
:1048A000AFD2C6DA110EEECFDBFF120EEDCFDBFF7B
:1048B000110EDBCFE6FF120EDBCFE6FFF3EC5DF06F
:1048C000E552E552130EF3CFDBFF140EF4CFDBFFFE
:1048D000060EDB5004E0130ED0DB01E20EDB61ECD0
:1048E00028F002E2130EDBDAAFDB05E0040EC5DBD5
:1048F00002E2050ED4DA030EDBB005D0A2DA01E045
:104900007FD2080EDB6A090EDB6A110EDBCFE9FFEE
:10491000120EDBCFEAFFEFCFDFFFDF5014E0D7DB73
:1049200012E2E4DB03E1011C01E16AD267DB01E38F
:10493000DB2A090EDB2A110EDB2ADBCFE9FF120E80
:10494000E8E3DB2AE6D77DDA01E160D259D2030E33
:10495000DB8E070EDB0410E195DB040E5ADB0A0E3A
:10496000EECFDBFF0B0EEECFDBFF0C0EEECFDBFF4F
:104970000D0EEECFDBFF6CD0070EDB5003082CE1F1
:10498000030EDBAE0DD0B2DA020E76DAEFCF00F016
:10499000016A026A036A00AE39D00168026835D044
:1049A000F70EDBCF01F0F80EDBCF02F0020E015E56
:1049B000000E025AF70E01C0DBFFF80E02C0DBFF4B
:1049C00001C0E9FF02C0EAFFEFCF00F00A0E00C00D
:1049D000DBFF0B0EDB6A38D0070EDB50020809E163
:1049E000030EDBAE04D059DB02AE10D00ED055DB87
:1049F0000DD0030EDBAE12D079DA020E3DDAF9DA11
:104A0000026A036A01AE02D002680368E2DA0C0EA1
:104A100002C0DBFF0D0E03C0DBFF1AD0F70EDBCFA9
:104A200002F0F80EDBCF03F0020E025E000E035A16
:104A3000F70E02C0DBFFF80E03C0DBFF02C0E9FF88
:104A400003C0EAFFD6DAC5DA0C0EDB6A0D0EDB6AAC
:104A5000060EDB5005E1010EF36E050EF3CFDBFF12
:104A6000150EDB6A160EDB6AD950370F006E000E8A
:104A7000DA20016E390E00C0DBFF3A0E01C0DBFF09
:104A8000380EDB6A080EDB6A0A0EAEDADF50780AEF
:104A900012E0200A10E0280A0CE0200A0AE03F0A8F
:104AA00006E00D0A02E0200A08E1020E05D0080E19
:104AB00003D0080EDF26100E97DA030EDBBE02D0FD
:104AC000DB92DB94DB50800B26E08ADA030EEB509E
:104AD000000AE8AE02D0D89008D0000EEE5C000EBE
:104AE000EE58000EEE58000EEE5815E211DA50683E
:104AF00051685268536887EC5DF00A0E47C0DBFFCF
:104B00000B0E48C0DBFF0C0E49C0DBFF0D0E4AC088
:104B1000DBFF2D0E08D0030EDBA202D02B0E03D03C
:104B2000DBA408D0200EF36E170EF3CFDBFF150EBB
:104B3000DB2A02D0170EDB6A050EDB5003E1B5D984
:104B400001E189D08A0E006EBF0E016E000E026E6A
:104B5000070EDBCF03F0046A056A066A03C050F053
:104B600004C051F005C052F006C053F0D1D90DEC8D
:104B70005FF000504724F36E01504820F46E02505D
:104B80004920F86EF4CFF7FFF3CFF6FF0800090EC7
:104B9000F5CFDBFF580EDF5C0FE1610EF36E090EFF
:104BA00079D90AE3200E006E090EDBCFE7FF005033
:104BB000E75E090EE7CFDBFF070EDBCF00F0016AEF
:104BC000026A036A0DDA00C050F001C051F002C061
:104BD00052F003C053F0EECF4BF0EECF4CF0EECFDF
:104BE0004DF0EFCF4EF00DEC5FF04EC0EDFF4DC03D
:104BF000EDFF4CC0EDFF4BC0EFFF390EDBCFE9FFFF
:104C0000DB063A0EDBCFEAFF01E2DB06090EDBCF63
:104C1000EFFF150EDB2A49D995E1030EDBA61DD067
:104C20006F0EDF5C06E1BFD918E3150EDB2859DAF9
:104C300014D0780EDF5C09E0580EDF5C06E0620EEF
:104C4000DF5C03E0420EDF5C08E1020EF36E160E3D
:104C5000F3CFDBFF02D0150EDB6A030EDB50100B27
:104C60000EE0040EDBCF00F0050EDB50D8800054C0
:104C700006E2060EDB5003E1040EDB5032DA93D974
:104C80000AE2050EDBCFE7FF150EDB50E75E050EEF
:104C9000E7CFDBFF02D0050EDB6A040EDBCF00F0AE
:104CA000160E43D9D880005414E2160EDBCFE6FF6F
:104CB000150EDBCFE6FF040EDBCFE6FF050EDB5063
:104CC000E552E75CE552D880E754E552D880E754D6
:104CD0005DD9030EDB50010B0BE1080EDB5008E041
:104CE000B0D801E08DD0080EDB50BCD8080EDB6ACE
:104CF000170EDB5007E086D9170EEFD903E1011C30
:104D000001E17ED0160EDB5016E07CD9300EE66E47
:104D10009DD802E1011C74E075D9DFCFE6FF45ECB8
:104D20005DF0E552E552E552F4CF01F00001F31CCD
:104D300002E1011C65E0050EDBCF00F0160EDB5032
:104D4000D880005409E2050EDBCFE7FF160EDB50DA
:104D5000E75E050EE7CFDBFF300EE66E050EC9D924
:104D60004FE1390EDB2ADBCFE9FF3A0E01E3DB2A04
:104D7000DBCFEAFF090EEFCFDBFFDB500EE042D9BD
:104D8000090EABD902E1011C3BE0390EDB2ADBCF77
:104D9000E9FF3A0EEDE3DB2AEBD753D831E1160EEB
:104DA000DBCFE6FF080EC1D8E552E7245BD82ED052
:104DB000070EDB50030A1CE0010A14E0030A07E0B7
:104DC00079D9DBCFEEFF020EDBCFEDFF1FD0F3D89A
:104DD000056A03AE02D0046805682AD8BAD805C0AF
:104DE000EEFF14D0E8D803BE046822D8B2D80ED0A3
:104DF00061D9DBCFEFFF0AD079D905E1011C03E1CE
:104E0000F368F46810D0FAD801E3DB2A77D9A3EF6E
:104E100022F0010EDBCF00F0020EDBCF01F000C06C
:104E2000F3FF01C0F4FFD9CFE1FFDACFE2FFCBD02F
:104E300029D9020E09EF28F061D90800F550DF6E7C
:104E40001200200EE66E080E79EF28F045EC5DF0BA
:104E5000E552E552E552F3CF00F0F4CF01F0000146
:104E6000F31C1200006E016AD950010F4DD9005099
:104E7000EE260150ED221200045E000E055AF70ED8
:104E800004C0DBFFF80E05C0DBFF04C0E9FF05C06E
:104E9000EAFF1200DBCFF4FFF350F45C1200DB50AA
:104EA000E76E040EE7CFDBFF12000A0EDBCF00F047
:104EB0000B0EDBCF01F00C0EDBCF02F00D0EDBCFC3
:104EC00003F000500110021003101200130EEECF79
:104ED000DBFF140EEDCFDBFF130EDBCF00F0140E63
:104EE000DBCF01F00001800E01141200F70EDBCFC2
:104EF00004F0F80EDBCF05F01200050EDB50E66E75
:104F0000D950130F01D9E552E750EE6EED6A120049
:104F10000A0EDBCF4BF00B0EDBCF4CF00C0EDBCFD1
:104F20004DF00D0EDBCF4EF01200DBCFE6FF150E7D
:104F3000DBCFE6FF050EDB50E552E724E552E72420
:104F40001200DB50CED8010EF36E060EF3CFDBFF5E
:104F50001200EE50EFCFEAFFE96E02C0EEFF03C091
:104F6000EEFF04C0EEFF1200D9CFE6FFDACFE6FF76
:104F7000E1CFD9FFE2CFDAFF1200DFCFE6FFE66A2A
:104F80007AEC5FF0E552E552F3501200E76E080E3E
:104F9000E7CFDBFF1200EECF00F0EECF01F0EFCF56
:104FA00002F0036A1200050EDBCF00F0150EDB5095
:104FB000D88000541200010EDBCF02F0020EDBCFCE
:104FC00003F0046A1200E552E5CFDAFFE7CFD9FF1C
:104FD00012000A0E00C0DBFF0B0E01C0DBFF120047
:104FE000D9500A0F84EF28F0F36E070EF3CFDBFFE2
:104FF0001200EECF00F0EFCF01F01200010EDB2A1D
:10500000020E1200FC0EDBCFE6FFFD0EDBCFE6FF4B
:105010001200005E000E015AF70E00C0DBFFF80E12
:1050200001C0DBFF00C0E9FF01C0EAFF1200DA2087
:10503000EA6EEF2AEECFF6FF000EEF22EECFF7FF7B
:10504000EF22EECFF8FF1200040EDBCFE6FF130EC7
:10505000DB50E552E75C9ADFDB5004DF060EDB50E5
:105060001200090EDB500A0DF350DF24D00FE76E5B
:10507000090EE7CFDBFF1CEF27F0DB50F36E050EC8
:105080004AEF27F0F70EDBCF00F0F80EDBCF01F090
:105090001200DFCFE6FF26EF27F028DF030EECDE5D
:1050A000CBEF27F078EC22F0E552E552E552E552DD
:1050B00000091200BDDEEE50EFCFEAFFE96E010EEF
:1050C0001200130EDB50F36E040E4AEF27F0040EAD
:1050D000DB50F36E090E4AEF27F0DBCFE6FF26EF39
:1050E00027F0E76E050EE7CFDBFF12008BDF49EFFD
:1050F00028F0DBCFE6FF86DF52EF28F0D950F90F1A
:10510000E96EFF0E17EF28F0E96E000EDA20EA6E66
:0251100012008B
:0E511200D9CFE6FFE1CFD9FF040EE12603015D
:105120003C510A0A01E19AD2030A01E181D2010A43
:1051300001E166D20F0A01E12BD2010A01E104D29A
:10514000030A01E1EDD1010A01E189D0070A6CE00F
:10515000010A2EE0030A27E0010A01E087D2010ECE
:105160003B6F0201806B8051006E016A160E005C7D
:10517000000E015814E28051EA6A880FE96E010EB0
:10518000EA22030EEFCFDBFF8051EA6A610FE96E7E
:10519000020EEA22030EDBCFEFFF802BE4D70301E0
:1051A000010E3C6F63D26BDA0301020E3C6F5ED2DC
:1051B0007BEC36F0E76E020EE7CFDBFF610EF36E9D
:1051C000020EDBCFF4FFF350F45C0EE3020EDB5073
:1051D00073080AE30301030E3C6F020EDB509F0FBE
:1051E000020F02017E6F1FD0020EDB50750804E132
:1051F0000301090E3C6F17D0020EDB50760804E164
:105200000301060E3C6F0FD0020EDB50770804E15D
:105210000301070E3C6F07D0020EDB50780803E154
:1052200003013C6B3B6B22D202017D6B7BEC36F0C1
:10523000000901E0FBD7E60E006E640E016E026A03
:1052400000C0E6FF01C0E6FF02C0E6FFFBEC5CF039
:10525000E552E552E5520301040E3C6F07D27BECA8
:1052600036F0E76E020EE7CFDBFF300EF36E020E74
:10527000DBCFF4FFF350F45C04E3020EDB5039089B
:1052800020E2610EF36E020EDBCFF4FFF350F45C0C
:1052900004E3020EDB50660814E2410EF36E020EC8
:1052A000DBCFF4FFF350F45C04E3020EDB5046085E
:1052B00008E2020EDB50780804E0020EDB505808CA
:1052C00035E102017D51006E016A060E005C000EA0
:1052D00001582CE2610EF36E020EDBCFF4FFF350A7
:1052E000F45C04E3020EDB50660804E2020EDB50BD
:1052F00078080AE1200E006E020EDBCFE7FF0050B7
:10530000E75E020EE7CFDBFF020EDBCFE6FF7FECAE
:1053100036F0E55202017D51EA6A770FE96E020E1E
:10532000EA22020EDBCFEFFF7D2BF9D0020EDB501D
:105330000D0801E0F4D0300E0201775D01E079D074
:10534000580E785D76E17D51040804E2DE6A010EB4
:10535000DD6E6ED0040E7D5D44E1300E795D0AE3B2
:105360007951390807E3300E795D100DF350DE6E88
:10537000DD6A14D0410E795D0BE37951460808E3EC
:10538000410E795D0A0F100DF350DE6EDD6A06D016
:10539000580E795D03E1DE6A010EDD6E300E7A5D36
:1053A00009E37A51390806E3300E7A5DDE26000EF5
:1053B000DD2216D0410E7A5D0AE37A51460807E3F2
:1053C000410E7A5D0A0FDE26000EDD2209D0580E4E
:1053D0007A5D06E1D9CFE9FFDACFEAFFEE52ED2A96
:1053E00027D0030E7D5D21E1300E795D08E3795110
:1053F000390805E3300E795DDE6EDD6A15D0410EA9
:10540000795D09E37951460806E3410E795D0A0F9B
:10541000DE6EDD6A09D0580E795D06E1D9CFE9FF6D
:10542000DACFEAFFEE52ED2A03D0DE6A010EDD6E1E
:105430005DD07D51030804E2DE6A010EDD6E56D0B8
:10544000030E7D5D32E1300E775D006E016A640E01
:105450004D6E4E6A00C052F001C053F0BDEC3FF0FB
:105460004BC0DEFF4CC0DDFF300E0201785D026EE6
:10547000036A0A0E4D6E4E6A02C052F003C053F02A
:10548000BDEC3FF04BC000F04CC001F0D9CFE9FFBC
:10549000DACFEAFF0050EE260150ED22300E020175
:1054A000795DDE26000EDD2221D0020E7D5D0CE14D
:1054B000300E775D0A0DF350DE6EDD6A300E785DDA
:1054C000DE26000EDD2212D07D0505E1300E775D6F
:1054D000DE6EDD6A0BD07D5109E17E51EA6A610F13
:1054E000E96E020EEA22EF50DE6EDD6AD9CFE9FFE7
:1054F000DACFEAFFFF0ED880EE54000EED540CE335
:105500007E51EA6A610FE96E020EEA22DFCFEFFFF9
:105510000301010E3C6F03D00301050E3C6FA6D0C2
:10552000C60E006E640E016E026A00C0E6FF01C086
:10553000E6FF02C0E6FFFBEC5CF0E552E552E55207
:105540000301030E3C6F92D00201640E636F6E0E76
:10555000646F0B0E656F150E666F790E676F830EA5
:10556000686F696B6A6B800E6B6F6C6F6D6F010E8D
:105570006E6F6F6F200E706F716F800E726F736F32
:10558000200E746F840E756F0301010E3C6F6ED098
:105590000201806B8051006E016A160E005C000EE5
:1055A000015814E28051EA6A610FE96E020EEA22A4
:1055B000030EEFCFDBFF8051EA6A880FE96E010E20
:1055C000EA22030EDBCFEFFF802BE4D7000EE66E5E
:1055D000E66AAEDAE552E552B00E006E640E016E78
:1055E000026A00C0E6FF01C0E6FF02C0E6FFFBEC76
:1055F0005CF0E552E552E5520301080E3C6F36D0EF
:10560000F1EC5AF0200813E1A90E006E640E016E51
:10561000026A00C0E6FF01C0E6FF02C0E6FFFBEC45
:105620005CF0E552E552E5520301010E3C6F1ED0DD
:10563000900E006E640E016E026A00C0E6FF01C0AB
:10564000E6FF02C0E6FFFBEC5CF0E552E552E552F6
:10565000E1EC35F003010A0E3C6F08D0E4EC35F0C4
:10566000010803E10301010E3C6F00D003013B512F
:1056700000D0D9CFE1FFE552E7CFD9FF12008D0E60
:10568000006E640E016E026A00C0E6FF01C0E6FF14
:1056900002C0E6FFFBEC5CF0E552E552E552710E0C
:1056A000006E640E016E026A00C0E6FF01C0E6FFF4
:1056B00002C0E6FFFBEC5CF0E552E552E552020168
:1056C0006351E66EE66A6351E66EE66A500E006E5E
:1056D000640E016E026A00C0E6FF01C0E6FF02C070
:1056E000E6FFFBEC5CF0F56E070EE15EF5500201A3
:1056F0006451E66EE66A6451E66EE66A2F0E006E4D
:10570000640E016E026A00C0E6FF01C0E6FF02C03F
:10571000E6FFFBEC5CF0F56E070EE15EF550020172
:105720006551E66EE66A6551E66EE66A0E0E006E3B
:10573000640E016E026A00C0E6FF01C0E6FF02C00F
:10574000E6FFFBEC5CF0F56E070EE15EF550020142
:105750006651E66EE66A6651E66EE66AED0E006E2A
:10576000630E016E026A00C0E6FF01C0E6FF02C0E0
:10577000E6FFFBEC5CF0F56E070EE15EF550020112
:105780006751E66EE66A6751E66EE66ACC0E006E19
:10579000630E016E026A00C0E6FF01C0E6FF02C0B0
:1057A000E6FFFBEC5CF0F56E070EE15EF5500201E2
:1057B0006851E66EE66A6851E66EE66AAB0E006E08
:1057C000630E016E026A00C0E6FF01C0E6FF02C080
:1057D000E6FFFBEC5CF0F56E070EE15EF5500201B2
:1057E0006951E66EE66A6951E66EE66A8D0E006EF4
:1057F000630E016E026A00C0E6FF01C0E6FF02C050
:10580000E6FFFBEC5CF0F56E070EE15EF550770EFF
:10581000006E630E016E026A00C0E6FF01C0E6FF83
:1058200002C0E6FFFBEC5CF0E552E552E5520201F6
:105830006A51E66EE66A6A51E66EE66A580E006ED6
:10584000630E016E026A00C0E6FF01C0E6FF02C0FF
:10585000E6FFFBEC5CF0F56E070EE15EF550020131
:105860006B51E66EE66A6B51E66EE66A390E006EC3
:10587000630E016E026A00C0E6FF01C0E6FF02C0CF
:10588000E6FFFBEC5CF0F56E070EE15EF550020101
:105890006C51E66EE66A6C51E66EE66A1A0E006EB0
:1058A000630E016E026A00C0E6FF01C0E6FF02C09F
:1058B000E6FFFBEC5CF0F56E070EE15EF5500201D1
:1058C0006D51E66EE66A6D51E66EE66AFB0E006E9D
:1058D000620E016E026A00C0E6FF01C0E6FF02C070
:1058E000E6FFFBEC5CF0F56E070EE15EF5500201A1
:1058F0006E51E66EE66A6E51E66EE66ADC0E006E8A
:10590000620E016E026A00C0E6FF01C0E6FF02C03F
:10591000E6FFFBEC5CF0F56E070EE15EF550020170
:105920006F51E66EE66A6F51E66EE66ABD0E006E76
:10593000620E016E026A00C0E6FF01C0E6FF02C00F
:10594000E6FFFBEC5CF0F56E070EE15EF550020140
:105950007051E66EE66A7051E66EE66A9D0E006E64
:10596000620E016E026A00C0E6FF01C0E6FF02C0DF
:10597000E6FFFBEC5CF0F56E070EE15EF550020110
:105980007151E66EE66A7151E66EE66A7D0E006E52
:10599000620E016E026A00C0E6FF01C0E6FF02C0AF
:1059A000E6FFFBEC5CF0F56E070EE15EF5500201E0
:1059B0007251E66EE66A7251E66EE66A5D0E006E40
:1059C000620E016E026A00C0E6FF01C0E6FF02C07F
:1059D000E6FFFBEC5CF0F56E070EE15EF5500201B0
:1059E0007351E66EE66A7351E66EE66A3D0E006E2E
:1059F000620E016E026A00C0E6FF01C0E6FF02C04F
:105A0000E6FFFBEC5CF0F56E070EE15EF55002017F
:105A10007451E66EE66A7451E66EE66A1D0E006E1B
:105A2000620E016E026A00C0E6FF01C0E6FF02C01E
:105A3000E6FFFBEC5CF0F56E070EE15EF55002014F
:105A40007551E66EE66A7551E66EE66AFD0E006E09
:105A5000610E016E026A00C0E6FF01C0E6FF02C0EF
:105A6000E6FFFBEC5CF0F56E070EE15EF5508D0E87
:105A7000006E640E016E026A00C0E6FF01C0E6FF20
:105A800002C0E6FFFBEC5CF0E552E552E552E80EA1
:105A9000006E610E016E026A00C0E6FF01C0E6FF03
:105AA00002C0E6FFFBEC5CF0E552E552E552CE0E9B
:105AB000006E610E016E026A00C0E6FF01C0E6FFE3
:105AC00002C0E6FFFBEC5CF0E552E552E552BB0E8E
:105AD000006E610E016E026A00C0E6FF01C0E6FFC3
:105AE00002C0E6FFFBEC5CF0E552E552E552B00E79
:105AF000006E610E016E026A00C0E6FF01C0E6FFA3
:105B000002C0E6FFFBEC5CF0E552E552E5528D0E7B
:105B1000006E640E016E026A00C0E6FF01C0E6FF7F
:105B200002C0E6FFFBEC5CF0E552E552E5521200E4
:105B3000D9CFE6FFE1CFD9FF050EE126030EDB6AE0
:105B4000040EDB6A0101420E886F500E896FDE6A17
:105B5000DD6ADECF00F0DDCF01F0150E005C000E37
:105B6000015834E2DECFE9FFDDCFEAFF880EE926F7
:105B7000010EEA22020EEFCFDBFFDBCFE6FFFD0EC8
:105B8000DBCF02F0FE0EDBCF03F0DE500224006E0E
:105B9000DD500320016E00C0E6FF01C0E6FF3FECD0
:105BA0005AF0E552E552E552020EDB50006E016AF2
:105BB000D950030FE96EDACFEAFF0050EE2601500C
:105BC000ED22DF2A010E01E3DB2AC3D7030EDBCF70
:105BD000E6FF160EE76EFD0EDBCF00F0FE0EDBCF0C
:105BE00001F0E7500026000E01220006015A00C015
:105BF000E6FF01C0E6FF3FEC5AF0E552E552E55200
:0C5C0000D9CFE1FFE552E7CFD9FF120039
:045C0C004E6F206354
:105C1000616D65726120646174612E2E2E0D0A0023
:105C2000436F6E666964656E6365202850697865A8
:105C30006C732920203D2025750D0A0020426C6FD1
:105C4000622053697A652028506978656C73292031
:105C5000203D2025750D0A0054696C742045727230
:105C60006F722028506978656C732920203D2025AB
:105C7000640D0A002050616E204572726F722028F8
:105C8000506978656C732920203D2025640D0A0039
:105C900054696C7420536572766F203D2025640D25
:105CA0000A002050616E20536572766F203D2025DA
:105CB000640D0A000D0A00536561726368696E67BE
:105CC0002E2E2E0D0A005B705D2052657475726E6B
:105CD00020546F204D61696E20547261636B696E50
:105CE00067204D656E750D0A005B6F5D204469731A
:105CF000706C61792043757272656E742050574DD7
:105D00002056616C7565730D0A005B6E5D205365EE
:105D1000742054696C74204D61782050574D205682
:105D2000616C75650D0A005B6D5D205365742054D0
:105D3000696C742043656E7465722050574D20560F
:105D4000616C75650D0A005B6C5D205365742054B1
:105D5000696C74204D696E2050574D2056616C75EA
:105D6000650D0A005B6B5D2054696C7420446F778D
:105D70006E2054656E2053746570730D0A005B6A63
:105D80005D2054696C7420446F776E204F6E6520DF
:105D9000537465700D0A005B695D2054696C742052
:105DA00055702054656E2053746570730D0A005B46
:105DB000685D2054696C74205570204F6E652053C7
:105DC0007465700D0A005B675D2053657420506137
:105DD0006E204D61782050574D2056616C75650DD1
:105DE0000A005B665D205365742050616E20436538
:105DF0006E7465722050574D2056616C75650D0AA2
:105E0000005B655D205365742050616E204D696EA6
:105E10002050574D2056616C75650D0A005B645D1E
:105E20002050616E2052696768742054656E20535B
:105E3000746570730D0A005B635D2050616E2052C3
:105E400069676874204F6E6520537465700D0A0091
:105E50005B625D2050616E204C6566742054656EF7
:105E60002053746570730D0A005B615D2050616E94
:105E7000204C656674204F6E6520537465700D0A62
:105E8000005B785D20457869740D0A005B775D20C2
:105E900053617665206368616E6765730D0A005B08
:105EA000765D204C6F61642064656661756C74205A
:105EB00076616C7565730D0A005B755D20496E74C3
:105EC00065726163746976652050574D2041646A3C
:105ED0007573746D656E74204D656E750D0A005B8B
:105EE000725D204368616E676520436F6E6669640A
:105EF000656E6365205468726573686F6C64203DDD
:105F00002025750D0A005B715D204368616E676531
:105F1000205365617263682044656C6179203D207F
:105F200025750D0A005B705D204368616E67652012
:105F300054696C7420546172676574205069786587
:105F40006C203D2025750D0A005B6F5D2043686164
:105F50006E67652054696C742053656172636820B4
:105F6000537465702053697A65203D2025750D0AAC
:105F7000005B6E5D204368616E67652054696C74D8
:105F800020526F746174696F6E205369676E203D93
:105F900020252B640D0A005B6D5D204368616E67F0
:105FA000652054696C7420416C6C6F7761626C651C
:105FB000204572726F72203D2025750D0A005B6CC2
:105FC0005D204368616E67652054696C7420476189
:105FD000696E203D2025750D0A005B6B5D204368CE
:105FE000616E67652054696C74204D61782050574C
:105FF0004D203D2025750D0A005B6A5D20436861D8
:106000006E67652054696C742043656E74657220F8
:1060100050574D203D2025750D0A005B695D2043DA
:1060200068616E67652054696C74204D696E2050FC
:10603000574D203D2025750D0A005B685D204368A3
:10604000616E67652050616E2054617267657420CF
:10605000506978656C203D2025750D0A005B675DF1
:10606000204368616E67652050616E2053656172E0
:10607000636820537465702053697A65203D20253C
:10608000750D0A005B665D204368616E6765205090
:10609000616E20526F746174696F6E205369676E10
:1060A000203D20252B640D0A005B655D204368615F
:1060B0006E67652050616E20416C6C6F7761626C19
:1060C00065204572726F72203D2025750D0A005BB8
:1060D000645D204368616E67652050616E20476192
:1060E000696E203D2025750D0A005B635D204368C5
:1060F000616E67652050616E204D61782050574D6C
:10610000203D2025750D0A005B625D204368616EAD
:1061100067652050616E2043656E7465722050572C
:106120004D203D2025750D0A005B615D20436861AF
:106130006E67652050616E204D696E2050574D206E
:106140003D2025750D0A00446F6E650D0A000D0A8D
:10615000536176696E6720746F20454550524F4DEC
:106160002E2E2E0054696C74203D20257500506140
:106170006E203D2025750D0A000D0A000D0A45729E
:10618000726F723A204E756D626572206F75742061
:106190006F662072616E67652E0D0A000D0A456EEE
:1061A000746572206E65772076616C75653A2000A3
:1061B0005B785D20457869740D0A005B775D20533C
:1061C000617665206368616E6765730D0A005B76B2
:1061D0005D204C6F61642064656661756C74207627
:1061E000616C7565730D0A005B755D205265737493
:1061F0006172742063616D6572610D0A005B735D8D
:10620000204368616E676520434F4D4A203D20253D
:10621000752028307825303258290D0A005B725DD0
:10622000204368616E6765204548534C203D20251A
:10623000752028307825303258290D0A005B715DB1
:10624000204368616E67652045485348203D2025FE
:10625000752028307825303258290D0A005B705D92
:10626000204368616E676520434F4D49203D2025DE
:10627000752028307825303258290D0A005B6F5D73
:10628000204368616E676520434F4D42203D2025C5
:10629000752028307825303258290D0A005B6E5D54
:1062A000204368616E676520434F4D41203D2025A6
